{
	"BurgerShop.sol": {
		"BurgerShop": {
			"abi": [
				{
					"inputs": [],
					"stateMutability": "nonpayable",
					"type": "constructor"
				},
				{
					"anonymous": false,
					"inputs": [
						{
							"indexed": true,
							"internalType": "address",
							"name": "_from",
							"type": "address"
						},
						{
							"indexed": false,
							"internalType": "uint256",
							"name": "cost",
							"type": "uint256"
						}
					],
					"name": "BoughtBurger",
					"type": "event"
				},
				{
					"inputs": [],
					"name": "burgerShopStage",
					"outputs": [
						{
							"internalType": "enum BurgerShop.Stages",
							"name": "",
							"type": "uint8"
						}
					],
					"stateMutability": "view",
					"type": "function"
				},
				{
					"inputs": [
						{
							"internalType": "uint256",
							"name": "_price",
							"type": "uint256"
						}
					],
					"name": "buyBurger",
					"outputs": [],
					"stateMutability": "payable",
					"type": "function"
				},
				{
					"inputs": [],
					"name": "claimRefund",
					"outputs": [],
					"stateMutability": "payable",
					"type": "function"
				},
				{
					"inputs": [],
					"name": "deluxCost",
					"outputs": [
						{
							"internalType": "uint256",
							"name": "",
							"type": "uint256"
						}
					],
					"stateMutability": "view",
					"type": "function"
				},
				{
					"inputs": [],
					"name": "getFunds",
					"outputs": [
						{
							"internalType": "uint256",
							"name": "",
							"type": "uint256"
						}
					],
					"stateMutability": "view",
					"type": "function"
				},
				{
					"inputs": [
						{
							"internalType": "uint256",
							"name": "_seed",
							"type": "uint256"
						}
					],
					"name": "getRandomNum",
					"outputs": [
						{
							"internalType": "uint256",
							"name": "",
							"type": "uint256"
						}
					],
					"stateMutability": "view",
					"type": "function"
				},
				{
					"inputs": [],
					"name": "madeBurger",
					"outputs": [],
					"stateMutability": "nonpayable",
					"type": "function"
				},
				{
					"inputs": [],
					"name": "normalCost",
					"outputs": [
						{
							"internalType": "uint256",
							"name": "",
							"type": "uint256"
						}
					],
					"stateMutability": "view",
					"type": "function"
				},
				{
					"inputs": [],
					"name": "owner",
					"outputs": [
						{
							"internalType": "address",
							"name": "",
							"type": "address"
						}
					],
					"stateMutability": "view",
					"type": "function"
				},
				{
					"inputs": [],
					"name": "pause",
					"outputs": [],
					"stateMutability": "nonpayable",
					"type": "function"
				},
				{
					"inputs": [],
					"name": "paused",
					"outputs": [
						{
							"internalType": "bool",
							"name": "",
							"type": "bool"
						}
					],
					"stateMutability": "view",
					"type": "function"
				},
				{
					"inputs": [],
					"name": "pickUpBurger",
					"outputs": [],
					"stateMutability": "nonpayable",
					"type": "function"
				},
				{
					"inputs": [
						{
							"internalType": "address",
							"name": "_to",
							"type": "address"
						},
						{
							"internalType": "uint256",
							"name": "_cost",
							"type": "uint256"
						}
					],
					"name": "refund",
					"outputs": [],
					"stateMutability": "payable",
					"type": "function"
				},
				{
					"inputs": [],
					"name": "startDate",
					"outputs": [
						{
							"internalType": "uint256",
							"name": "",
							"type": "uint256"
						}
					],
					"stateMutability": "view",
					"type": "function"
				},
				{
					"inputs": [
						{
							"internalType": "enum BurgerShop.Stages",
							"name": "_stage",
							"type": "uint8"
						}
					],
					"name": "updateStage",
					"outputs": [],
					"stateMutability": "nonpayable",
					"type": "function"
				},
				{
					"inputs": [
						{
							"internalType": "address",
							"name": "",
							"type": "address"
						}
					],
					"name": "userRefunds",
					"outputs": [
						{
							"internalType": "uint256",
							"name": "",
							"type": "uint256"
						}
					],
					"stateMutability": "view",
					"type": "function"
				}
			],
			"devdoc": {
				"kind": "dev",
				"methods": {},
				"version": 1
			},
			"evm": {
				"assembly": "    /* \"BurgerShop.sol\":67:2458  contract BurgerShop {... */\n  mstore(0x40, 0x80)\n    /* \"BurgerShop.sol\":121:130  0.2 ether */\n  0x02c68af0bb140000\n    /* \"BurgerShop.sol\":93:130  uint256 public normalCost = 0.2 ether */\n  0x00\n  sstore\n    /* \"BurgerShop.sol\":163:172  0.4 ether */\n  0x058d15e176280000\n    /* \"BurgerShop.sol\":136:172  uint256 public deluxCost = 0.4 ether */\n  0x01\n  sstore\n    /* \"BurgerShop.sol\":223:233  30 seconds */\n  0x1e\n    /* \"BurgerShop.sol\":205:220  block.timestamp */\n  timestamp\n    /* \"BurgerShop.sol\":205:233  block.timestamp + 30 seconds */\n  tag_1\n  swap2\n  swap1\n  tag_2\n  jump\t// in\ntag_1:\n    /* \"BurgerShop.sol\":178:233  uint256 public startDate = block.timestamp + 30 seconds */\n  0x02\n  sstore\n    /* \"BurgerShop.sol\":528:547  Stages.readyToOrder */\n  0x00\n    /* \"BurgerShop.sol\":496:547  Stages public burgerShopStage = Stages.readyToOrder */\n  0x05\n  exp(0x0100, 0x01)\n  dup2\n  sload\n  dup2\n  0xff\n  mul\n  not\n  and\n  swap1\n  dup4\n  0x02\n  dup2\n  gt\n  iszero\n  tag_3\n  jumpi\n  tag_4\n  tag_5\n  jump\t// in\ntag_4:\ntag_3:\n  mul\n  or\n  swap1\n  sstore\n  pop\n    /* \"BurgerShop.sol\":551:592  constructor() {... */\n  callvalue\n  dup1\n  iszero\n  tag_6\n  jumpi\n  0x00\n  dup1\n  revert\ntag_6:\n  pop\n    /* \"BurgerShop.sol\":579:589  msg.sender */\n  caller\n    /* \"BurgerShop.sol\":571:576  owner */\n  0x03\n  0x00\n    /* \"BurgerShop.sol\":571:589  owner = msg.sender */\n  0x0100\n  exp\n  dup2\n  sload\n  dup2\n  0xffffffffffffffffffffffffffffffffffffffff\n  mul\n  not\n  and\n  swap1\n  dup4\n  0xffffffffffffffffffffffffffffffffffffffff\n  and\n  mul\n  or\n  swap1\n  sstore\n  pop\n    /* \"BurgerShop.sol\":67:2458  contract BurgerShop {... */\n  jump(tag_9)\n    /* \"#utility.yul\":7:84   */\ntag_10:\n    /* \"#utility.yul\":44:51   */\n  0x00\n    /* \"#utility.yul\":73:78   */\n  dup2\n    /* \"#utility.yul\":62:78   */\n  swap1\n  pop\n    /* \"#utility.yul\":7:84   */\n  swap2\n  swap1\n  pop\n  jump\t// out\n    /* \"#utility.yul\":90:270   */\ntag_11:\n    /* \"#utility.yul\":138:215   */\n  0x4e487b7100000000000000000000000000000000000000000000000000000000\n    /* \"#utility.yul\":135:136   */\n  0x00\n    /* \"#utility.yul\":128:216   */\n  mstore\n    /* \"#utility.yul\":235:239   */\n  0x11\n    /* \"#utility.yul\":232:233   */\n  0x04\n    /* \"#utility.yul\":225:240   */\n  mstore\n    /* \"#utility.yul\":259:263   */\n  0x24\n    /* \"#utility.yul\":256:257   */\n  0x00\n    /* \"#utility.yul\":249:264   */\n  revert\n    /* \"#utility.yul\":276:467   */\ntag_2:\n    /* \"#utility.yul\":316:319   */\n  0x00\n    /* \"#utility.yul\":335:355   */\n  tag_16\n    /* \"#utility.yul\":353:354   */\n  dup3\n    /* \"#utility.yul\":335:355   */\n  tag_10\n  jump\t// in\ntag_16:\n    /* \"#utility.yul\":330:355   */\n  swap2\n  pop\n    /* \"#utility.yul\":369:389   */\n  tag_17\n    /* \"#utility.yul\":387:388   */\n  dup4\n    /* \"#utility.yul\":369:389   */\n  tag_10\n  jump\t// in\ntag_17:\n    /* \"#utility.yul\":364:389   */\n  swap3\n  pop\n    /* \"#utility.yul\":412:413   */\n  dup3\n    /* \"#utility.yul\":409:410   */\n  dup3\n    /* \"#utility.yul\":405:414   */\n  add\n    /* \"#utility.yul\":398:414   */\n  swap1\n  pop\n    /* \"#utility.yul\":433:436   */\n  dup1\n    /* \"#utility.yul\":430:431   */\n  dup3\n    /* \"#utility.yul\":427:437   */\n  gt\n    /* \"#utility.yul\":424:460   */\n  iszero\n  tag_18\n  jumpi\n    /* \"#utility.yul\":440:458   */\n  tag_19\n  tag_11\n  jump\t// in\ntag_19:\n    /* \"#utility.yul\":424:460   */\ntag_18:\n    /* \"#utility.yul\":276:467   */\n  swap3\n  swap2\n  pop\n  pop\n  jump\t// out\n    /* \"#utility.yul\":473:653   */\ntag_5:\n    /* \"#utility.yul\":521:598   */\n  0x4e487b7100000000000000000000000000000000000000000000000000000000\n    /* \"#utility.yul\":518:519   */\n  0x00\n    /* \"#utility.yul\":511:599   */\n  mstore\n    /* \"#utility.yul\":618:622   */\n  0x21\n    /* \"#utility.yul\":615:616   */\n  0x04\n    /* \"#utility.yul\":608:623   */\n  mstore\n    /* \"#utility.yul\":642:646   */\n  0x24\n    /* \"#utility.yul\":639:640   */\n  0x00\n    /* \"#utility.yul\":632:647   */\n  revert\n    /* \"BurgerShop.sol\":67:2458  contract BurgerShop {... */\ntag_9:\n  dataSize(sub_0)\n  dup1\n  dataOffset(sub_0)\n  0x00\n  codecopy\n  0x00\n  return\nstop\n\nsub_0: assembly {\n        /* \"BurgerShop.sol\":67:2458  contract BurgerShop {... */\n      mstore(0x40, 0x80)\n      jumpi(tag_1, lt(calldatasize, 0x04))\n      shr(0xe0, calldataload(0x00))\n      dup1\n      0x925b8148\n      gt\n      tag_18\n      jumpi\n      dup1\n      0xc06a56ba\n      gt\n      tag_19\n      jumpi\n      dup1\n      0xc06a56ba\n      eq\n      tag_14\n      jumpi\n      dup1\n      0xd1f22eef\n      eq\n      tag_15\n      jumpi\n      dup1\n      0xe45dd666\n      eq\n      tag_16\n      jumpi\n      dup1\n      0xf203644a\n      eq\n      tag_17\n      jumpi\n      jump(tag_1)\n    tag_19:\n      dup1\n      0x925b8148\n      eq\n      tag_10\n      jumpi\n      dup1\n      0xb5545a3c\n      eq\n      tag_11\n      jumpi\n      dup1\n      0xb7db908a\n      eq\n      tag_12\n      jumpi\n      dup1\n      0xb8e53ae7\n      eq\n      tag_13\n      jumpi\n      jump(tag_1)\n    tag_18:\n      dup1\n      0x5c975abb\n      gt\n      tag_20\n      jumpi\n      dup1\n      0x5c975abb\n      eq\n      tag_6\n      jumpi\n      dup1\n      0x8456cb59\n      eq\n      tag_7\n      jumpi\n      dup1\n      0x883f3d96\n      eq\n      tag_8\n      jumpi\n      dup1\n      0x8da5cb5b\n      eq\n      tag_9\n      jumpi\n      jump(tag_1)\n    tag_20:\n      dup1\n      0x0b97bc86\n      eq\n      tag_2\n      jumpi\n      dup1\n      0x410085df\n      eq\n      tag_3\n      jumpi\n      dup1\n      0x4d9b3735\n      eq\n      tag_4\n      jumpi\n      dup1\n      0x59588d52\n      eq\n      tag_5\n      jumpi\n    tag_1:\n      0x00\n      dup1\n      revert\n        /* \"BurgerShop.sol\":178:233  uint256 public startDate = block.timestamp + 30 seconds */\n    tag_2:\n      callvalue\n      dup1\n      iszero\n      tag_21\n      jumpi\n      0x00\n      dup1\n      revert\n    tag_21:\n      pop\n      tag_22\n      tag_23\n      jump\t// in\n    tag_22:\n      mload(0x40)\n      tag_24\n      swap2\n      swap1\n      tag_25\n      jump\t// in\n    tag_24:\n      mload(0x40)\n      dup1\n      swap2\n      sub\n      swap1\n      return\n        /* \"BurgerShop.sol\":1332:1518  function refund(address _to, uint256 _cost) public payable onlyOwner correctAmount {... */\n    tag_3:\n      tag_26\n      0x04\n      dup1\n      calldatasize\n      sub\n      dup2\n      add\n      swap1\n      tag_27\n      swap2\n      swap1\n      tag_28\n      jump\t// in\n    tag_27:\n      tag_29\n      jump\t// in\n    tag_26:\n      stop\n        /* \"BurgerShop.sol\":1756:1850  function getFunds() public view returns(uint256) {... */\n    tag_4:\n      callvalue\n      dup1\n      iszero\n      tag_30\n      jumpi\n      0x00\n      dup1\n      revert\n    tag_30:\n      pop\n      tag_31\n      tag_32\n      jump\t// in\n    tag_31:\n      mload(0x40)\n      tag_33\n      swap2\n      swap1\n      tag_25\n      jump\t// in\n    tag_33:\n      mload(0x40)\n      dup1\n      swap2\n      sub\n      swap1\n      return\n        /* \"BurgerShop.sol\":1110:1321  function buyBurger(uint256 _price) public payable correctAmount() isAtStage(Stages.readyToOrder) shopOpened notPaused {... */\n    tag_5:\n      tag_34\n      0x04\n      dup1\n      calldatasize\n      sub\n      dup2\n      add\n      swap1\n      tag_35\n      swap2\n      swap1\n      tag_36\n      jump\t// in\n    tag_35:\n      tag_37\n      jump\t// in\n    tag_34:\n      stop\n        /* \"BurgerShop.sol\":320:338  bool public paused */\n    tag_6:\n      callvalue\n      dup1\n      iszero\n      tag_38\n      jumpi\n      0x00\n      dup1\n      revert\n    tag_38:\n      pop\n      tag_39\n      tag_40\n      jump\t// in\n    tag_39:\n      mload(0x40)\n      tag_41\n      swap2\n      swap1\n      tag_42\n      jump\t// in\n    tag_41:\n      mload(0x40)\n      dup1\n      swap2\n      sub\n      swap1\n      return\n        /* \"BurgerShop.sol\":2413:2455  function pause() public onlyOwner {... */\n    tag_7:\n      callvalue\n      dup1\n      iszero\n      tag_43\n      jumpi\n      0x00\n      dup1\n      revert\n    tag_43:\n      pop\n      tag_44\n      tag_45\n      jump\t// in\n    tag_44:\n      stop\n        /* \"BurgerShop.sol\":268:314  mapping(address => uint256) public userRefunds */\n    tag_8:\n      callvalue\n      dup1\n      iszero\n      tag_46\n      jumpi\n      0x00\n      dup1\n      revert\n    tag_46:\n      pop\n      tag_47\n      0x04\n      dup1\n      calldatasize\n      sub\n      dup2\n      add\n      swap1\n      tag_48\n      swap2\n      swap1\n      tag_49\n      jump\t// in\n    tag_48:\n      tag_50\n      jump\t// in\n    tag_47:\n      mload(0x40)\n      tag_51\n      swap2\n      swap1\n      tag_25\n      jump\t// in\n    tag_51:\n      mload(0x40)\n      dup1\n      swap2\n      sub\n      swap1\n      return\n        /* \"BurgerShop.sol\":240:260  address public owner */\n    tag_9:\n      callvalue\n      dup1\n      iszero\n      tag_52\n      jumpi\n      0x00\n      dup1\n      revert\n    tag_52:\n      pop\n      tag_53\n      tag_54\n      jump\t// in\n    tag_53:\n      mload(0x40)\n      tag_55\n      swap2\n      swap1\n      tag_56\n      jump\t// in\n    tag_55:\n      mload(0x40)\n      dup1\n      swap2\n      sub\n      swap1\n      return\n        /* \"BurgerShop.sol\":136:172  uint256 public deluxCost = 0.4 ether */\n    tag_10:\n      callvalue\n      dup1\n      iszero\n      tag_57\n      jumpi\n      0x00\n      dup1\n      revert\n    tag_57:\n      pop\n      tag_58\n      tag_59\n      jump\t// in\n    tag_58:\n      mload(0x40)\n      tag_60\n      swap2\n      swap1\n      tag_25\n      jump\t// in\n    tag_60:\n      mload(0x40)\n      dup1\n      swap2\n      sub\n      swap1\n      return\n        /* \"BurgerShop.sol\":1524:1749  function claimRefund() public payable {... */\n    tag_11:\n      tag_61\n      tag_62\n      jump\t// in\n    tag_61:\n      stop\n        /* \"BurgerShop.sol\":1981:2113  function pickUpBurger() public isAtStage(Stages.deliverBurger) shopOpened notPaused{... */\n    tag_12:\n      callvalue\n      dup1\n      iszero\n      tag_63\n      jumpi\n      0x00\n      dup1\n      revert\n    tag_63:\n      pop\n      tag_64\n      tag_65\n      jump\t// in\n    tag_64:\n      stop\n        /* \"BurgerShop.sol\":2119:2203  function updateStage(Stages _stage) public {... */\n    tag_13:\n      callvalue\n      dup1\n      iszero\n      tag_66\n      jumpi\n      0x00\n      dup1\n      revert\n    tag_66:\n      pop\n      tag_67\n      0x04\n      dup1\n      calldatasize\n      sub\n      dup2\n      add\n      swap1\n      tag_68\n      swap2\n      swap1\n      tag_69\n      jump\t// in\n    tag_68:\n      tag_70\n      jump\t// in\n    tag_67:\n      stop\n        /* \"BurgerShop.sol\":1856:1975  function madeBurger() public isAtStage(Stages.makeBurger) shopOpened {... */\n    tag_14:\n      callvalue\n      dup1\n      iszero\n      tag_71\n      jumpi\n      0x00\n      dup1\n      revert\n    tag_71:\n      pop\n      tag_72\n      tag_73\n      jump\t// in\n    tag_72:\n      stop\n        /* \"BurgerShop.sol\":2209:2403  function getRandomNum(uint256 _seed) public view returns(uint256) {... */\n    tag_15:\n      callvalue\n      dup1\n      iszero\n      tag_74\n      jumpi\n      0x00\n      dup1\n      revert\n    tag_74:\n      pop\n      tag_75\n      0x04\n      dup1\n      calldatasize\n      sub\n      dup2\n      add\n      swap1\n      tag_76\n      swap2\n      swap1\n      tag_36\n      jump\t// in\n    tag_76:\n      tag_77\n      jump\t// in\n    tag_75:\n      mload(0x40)\n      tag_78\n      swap2\n      swap1\n      tag_25\n      jump\t// in\n    tag_78:\n      mload(0x40)\n      dup1\n      swap2\n      sub\n      swap1\n      return\n        /* \"BurgerShop.sol\":496:547  Stages public burgerShopStage = Stages.readyToOrder */\n    tag_16:\n      callvalue\n      dup1\n      iszero\n      tag_79\n      jumpi\n      0x00\n      dup1\n      revert\n    tag_79:\n      pop\n      tag_80\n      tag_81\n      jump\t// in\n    tag_80:\n      mload(0x40)\n      tag_82\n      swap2\n      swap1\n      tag_83\n      jump\t// in\n    tag_82:\n      mload(0x40)\n      dup1\n      swap2\n      sub\n      swap1\n      return\n        /* \"BurgerShop.sol\":93:130  uint256 public normalCost = 0.2 ether */\n    tag_17:\n      callvalue\n      dup1\n      iszero\n      tag_84\n      jumpi\n      0x00\n      dup1\n      revert\n    tag_84:\n      pop\n      tag_85\n      tag_86\n      jump\t// in\n    tag_85:\n      mload(0x40)\n      tag_87\n      swap2\n      swap1\n      tag_25\n      jump\t// in\n    tag_87:\n      mload(0x40)\n      dup1\n      swap2\n      sub\n      swap1\n      return\n        /* \"BurgerShop.sol\":178:233  uint256 public startDate = block.timestamp + 30 seconds */\n    tag_23:\n      sload(0x02)\n      dup2\n      jump\t// out\n        /* \"BurgerShop.sol\":1332:1518  function refund(address _to, uint256 _cost) public payable onlyOwner correctAmount {... */\n    tag_29:\n        /* \"BurgerShop.sol\":725:730  owner */\n      0x03\n      0x00\n      swap1\n      sload\n      swap1\n      0x0100\n      exp\n      swap1\n      div\n      0xffffffffffffffffffffffffffffffffffffffff\n      and\n        /* \"BurgerShop.sol\":711:730  msg.sender == owner */\n      0xffffffffffffffffffffffffffffffffffffffff\n      and\n        /* \"BurgerShop.sol\":711:721  msg.sender */\n      caller\n        /* \"BurgerShop.sol\":711:730  msg.sender == owner */\n      0xffffffffffffffffffffffffffffffffffffffff\n      and\n      eq\n        /* \"BurgerShop.sol\":703:749  require(msg.sender == owner, \"Not the owner!\") */\n      tag_89\n      jumpi\n      mload(0x40)\n      0x08c379a000000000000000000000000000000000000000000000000000000000\n      dup2\n      mstore\n      0x04\n      add\n      tag_90\n      swap1\n      tag_91\n      jump\t// in\n    tag_90:\n      mload(0x40)\n      dup1\n      swap2\n      sub\n      swap1\n      revert\n    tag_89:\n        /* \"BurgerShop.sol\":809:819  normalCost */\n      sload(0x00)\n        /* \"BurgerShop.sol\":796:805  msg.value */\n      callvalue\n        /* \"BurgerShop.sol\":796:819  msg.value == normalCost */\n      eq\n        /* \"BurgerShop.sol\":796:845  msg.value == normalCost || msg.value == deluxCost */\n      dup1\n      tag_93\n      jumpi\n      pop\n        /* \"BurgerShop.sol\":836:845  deluxCost */\n      sload(0x01)\n        /* \"BurgerShop.sol\":823:832  msg.value */\n      callvalue\n        /* \"BurgerShop.sol\":823:845  msg.value == deluxCost */\n      eq\n        /* \"BurgerShop.sol\":796:845  msg.value == normalCost || msg.value == deluxCost */\n    tag_93:\n        /* \"BurgerShop.sol\":788:873  require(msg.value == normalCost || msg.value == deluxCost, \"Not the correct ampunt!\") */\n      tag_94\n      jumpi\n      mload(0x40)\n      0x08c379a000000000000000000000000000000000000000000000000000000000\n      dup2\n      mstore\n      0x04\n      add\n      tag_95\n      swap1\n      tag_96\n      jump\t// in\n    tag_95:\n      mload(0x40)\n      dup1\n      swap2\n      sub\n      swap1\n      revert\n    tag_94:\n        /* \"BurgerShop.sol\":1451:1456  _cost */\n      dup1\n        /* \"BurgerShop.sol\":1426:1447  address(this).balance */\n      selfbalance\n        /* \"BurgerShop.sol\":1426:1456  address(this).balance >= _cost */\n      lt\n      iszero\n        /* \"BurgerShop.sol\":1418:1478  require(address(this).balance >= _cost, \"Not enough funds!\") */\n      tag_98\n      jumpi\n      mload(0x40)\n      0x08c379a000000000000000000000000000000000000000000000000000000000\n      dup2\n      mstore\n      0x04\n      add\n      tag_99\n      swap1\n      tag_100\n      jump\t// in\n    tag_99:\n      mload(0x40)\n      dup1\n      swap2\n      sub\n      swap1\n      revert\n    tag_98:\n        /* \"BurgerShop.sol\":1500:1505  _cost */\n      dup1\n        /* \"BurgerShop.sol\":1481:1492  userRefunds */\n      0x04\n        /* \"BurgerShop.sol\":1481:1497  userRefunds[_to] */\n      0x00\n        /* \"BurgerShop.sol\":1493:1496  _to */\n      dup5\n        /* \"BurgerShop.sol\":1481:1497  userRefunds[_to] */\n      0xffffffffffffffffffffffffffffffffffffffff\n      and\n      0xffffffffffffffffffffffffffffffffffffffff\n      and\n      dup2\n      mstore\n      0x20\n      add\n      swap1\n      dup2\n      mstore\n      0x20\n      add\n      0x00\n      keccak256\n        /* \"BurgerShop.sol\":1481:1505  userRefunds[_to] = _cost */\n      dup2\n      swap1\n      sstore\n      pop\n        /* \"BurgerShop.sol\":1332:1518  function refund(address _to, uint256 _cost) public payable onlyOwner correctAmount {... */\n      pop\n      pop\n      jump\t// out\n        /* \"BurgerShop.sol\":1756:1850  function getFunds() public view returns(uint256) {... */\n    tag_32:\n        /* \"BurgerShop.sol\":1796:1803  uint256 */\n      0x00\n        /* \"BurgerShop.sol\":1822:1843  address(this).balance */\n      selfbalance\n        /* \"BurgerShop.sol\":1815:1843  return address(this).balance */\n      swap1\n      pop\n        /* \"BurgerShop.sol\":1756:1850  function getFunds() public view returns(uint256) {... */\n      swap1\n      jump\t// out\n        /* \"BurgerShop.sol\":1110:1321  function buyBurger(uint256 _price) public payable correctAmount() isAtStage(Stages.readyToOrder) shopOpened notPaused {... */\n    tag_37:\n        /* \"BurgerShop.sol\":809:819  normalCost */\n      sload(0x00)\n        /* \"BurgerShop.sol\":796:805  msg.value */\n      callvalue\n        /* \"BurgerShop.sol\":796:819  msg.value == normalCost */\n      eq\n        /* \"BurgerShop.sol\":796:845  msg.value == normalCost || msg.value == deluxCost */\n      dup1\n      tag_103\n      jumpi\n      pop\n        /* \"BurgerShop.sol\":836:845  deluxCost */\n      sload(0x01)\n        /* \"BurgerShop.sol\":823:832  msg.value */\n      callvalue\n        /* \"BurgerShop.sol\":823:845  msg.value == deluxCost */\n      eq\n        /* \"BurgerShop.sol\":796:845  msg.value == normalCost || msg.value == deluxCost */\n    tag_103:\n        /* \"BurgerShop.sol\":788:873  require(msg.value == normalCost || msg.value == deluxCost, \"Not the correct ampunt!\") */\n      tag_104\n      jumpi\n      mload(0x40)\n      0x08c379a000000000000000000000000000000000000000000000000000000000\n      dup2\n      mstore\n      0x04\n      add\n      tag_105\n      swap1\n      tag_96\n      jump\t// in\n    tag_105:\n      mload(0x40)\n      dup1\n      swap2\n      sub\n      swap1\n      revert\n    tag_104:\n        /* \"BurgerShop.sol\":1186:1205  Stages.readyToOrder */\n      0x00\n        /* \"BurgerShop.sol\":960:966  _stage */\n      dup1\n        /* \"BurgerShop.sol\":941:966  burgerShopStage == _stage */\n      0x02\n      dup2\n      gt\n      iszero\n      tag_107\n      jumpi\n      tag_108\n      tag_109\n      jump\t// in\n    tag_108:\n    tag_107:\n        /* \"BurgerShop.sol\":941:956  burgerShopStage */\n      0x05\n      0x01\n      swap1\n      sload\n      swap1\n      0x0100\n      exp\n      swap1\n      div\n      0xff\n      and\n        /* \"BurgerShop.sol\":941:966  burgerShopStage == _stage */\n      0x02\n      dup2\n      gt\n      iszero\n      tag_110\n      jumpi\n      tag_111\n      tag_109\n      jump\t// in\n    tag_111:\n    tag_110:\n      eq\n        /* \"BurgerShop.sol\":933:992  require(burgerShopStage == _stage, \"Not at correct stage!\") */\n      tag_112\n      jumpi\n      mload(0x40)\n      0x08c379a000000000000000000000000000000000000000000000000000000000\n      dup2\n      mstore\n      0x04\n      add\n      tag_113\n      swap1\n      tag_114\n      jump\t// in\n    tag_113:\n      mload(0x40)\n      dup1\n      swap2\n      sub\n      swap1\n      revert\n    tag_112:\n        /* \"BurgerShop.sol\":644:653  startDate */\n      sload(0x02)\n        /* \"BurgerShop.sol\":626:641  block.timestamp */\n      timestamp\n        /* \"BurgerShop.sol\":626:653  block.timestamp > startDate */\n      gt\n        /* \"BurgerShop.sol\":618:671  require(block.timestamp > startDate, \"Not open yet!\") */\n      tag_116\n      jumpi\n      mload(0x40)\n      0x08c379a000000000000000000000000000000000000000000000000000000000\n      dup2\n      mstore\n      0x04\n      add\n      tag_117\n      swap1\n      tag_118\n      jump\t// in\n    tag_117:\n      mload(0x40)\n      dup1\n      swap2\n      sub\n      swap1\n      revert\n    tag_116:\n        /* \"BurgerShop.sol\":1072:1077  false */\n      0x00\n        /* \"BurgerShop.sol\":1062:1077  paused == false */\n      iszero\n      iszero\n        /* \"BurgerShop.sol\":1062:1068  paused */\n      0x05\n      0x00\n      swap1\n      sload\n      swap1\n      0x0100\n      exp\n      swap1\n      div\n      0xff\n      and\n        /* \"BurgerShop.sol\":1062:1077  paused == false */\n      iszero\n      iszero\n      eq\n        /* \"BurgerShop.sol\":1054:1078  require(paused == false) */\n      tag_120\n      jumpi\n      0x00\n      dup1\n      revert\n    tag_120:\n        /* \"BurgerShop.sol\":1237:1267  updateStage(Stages.makeBurger) */\n      tag_122\n        /* \"BurgerShop.sol\":1249:1266  Stages.makeBurger */\n      0x01\n        /* \"BurgerShop.sol\":1237:1248  updateStage */\n      tag_70\n        /* \"BurgerShop.sol\":1237:1267  updateStage(Stages.makeBurger) */\n      jump\t// in\n    tag_122:\n        /* \"BurgerShop.sol\":1295:1305  msg.sender */\n      caller\n        /* \"BurgerShop.sol\":1282:1314  BoughtBurger(msg.sender, _price) */\n      0xffffffffffffffffffffffffffffffffffffffff\n      and\n      0xc63d5e450f470dcc6536476b6fd78a0f261765ef92b25631875b0a35eaa095bf\n        /* \"BurgerShop.sol\":1307:1313  _price */\n      dup4\n        /* \"BurgerShop.sol\":1282:1314  BoughtBurger(msg.sender, _price) */\n      mload(0x40)\n      tag_123\n      swap2\n      swap1\n      tag_25\n      jump\t// in\n    tag_123:\n      mload(0x40)\n      dup1\n      swap2\n      sub\n      swap1\n      log2\n        /* \"BurgerShop.sol\":875:876  _ */\n      pop\n        /* \"BurgerShop.sol\":1110:1321  function buyBurger(uint256 _price) public payable correctAmount() isAtStage(Stages.readyToOrder) shopOpened notPaused {... */\n      pop\n      jump\t// out\n        /* \"BurgerShop.sol\":320:338  bool public paused */\n    tag_40:\n      0x05\n      0x00\n      swap1\n      sload\n      swap1\n      0x0100\n      exp\n      swap1\n      div\n      0xff\n      and\n      dup2\n      jump\t// out\n        /* \"BurgerShop.sol\":2413:2455  function pause() public onlyOwner {... */\n    tag_45:\n        /* \"BurgerShop.sol\":725:730  owner */\n      0x03\n      0x00\n      swap1\n      sload\n      swap1\n      0x0100\n      exp\n      swap1\n      div\n      0xffffffffffffffffffffffffffffffffffffffff\n      and\n        /* \"BurgerShop.sol\":711:730  msg.sender == owner */\n      0xffffffffffffffffffffffffffffffffffffffff\n      and\n        /* \"BurgerShop.sol\":711:721  msg.sender */\n      caller\n        /* \"BurgerShop.sol\":711:730  msg.sender == owner */\n      0xffffffffffffffffffffffffffffffffffffffff\n      and\n      eq\n        /* \"BurgerShop.sol\":703:749  require(msg.sender == owner, \"Not the owner!\") */\n      tag_125\n      jumpi\n      mload(0x40)\n      0x08c379a000000000000000000000000000000000000000000000000000000000\n      dup2\n      mstore\n      0x04\n      add\n      tag_126\n      swap1\n      tag_91\n      jump\t// in\n    tag_126:\n      mload(0x40)\n      dup1\n      swap2\n      sub\n      swap1\n      revert\n    tag_125:\n        /* \"BurgerShop.sol\":2413:2455  function pause() public onlyOwner {... */\n      jump\t// out\n        /* \"BurgerShop.sol\":268:314  mapping(address => uint256) public userRefunds */\n    tag_50:\n      mstore(0x20, 0x04)\n      dup1\n      0x00\n      mstore\n      keccak256(0x00, 0x40)\n      0x00\n      swap2\n      pop\n      swap1\n      pop\n      sload\n      dup2\n      jump\t// out\n        /* \"BurgerShop.sol\":240:260  address public owner */\n    tag_54:\n      0x03\n      0x00\n      swap1\n      sload\n      swap1\n      0x0100\n      exp\n      swap1\n      div\n      0xffffffffffffffffffffffffffffffffffffffff\n      and\n      dup2\n      jump\t// out\n        /* \"BurgerShop.sol\":136:172  uint256 public deluxCost = 0.4 ether */\n    tag_59:\n      sload(0x01)\n      dup2\n      jump\t// out\n        /* \"BurgerShop.sol\":1524:1749  function claimRefund() public payable {... */\n    tag_62:\n        /* \"BurgerShop.sol\":1572:1585  uint256 value */\n      0x00\n        /* \"BurgerShop.sol\":1588:1599  userRefunds */\n      0x04\n        /* \"BurgerShop.sol\":1588:1611  userRefunds[msg.sender] */\n      0x00\n        /* \"BurgerShop.sol\":1600:1610  msg.sender */\n      caller\n        /* \"BurgerShop.sol\":1588:1611  userRefunds[msg.sender] */\n      0xffffffffffffffffffffffffffffffffffffffff\n      and\n      0xffffffffffffffffffffffffffffffffffffffff\n      and\n      dup2\n      mstore\n      0x20\n      add\n      swap1\n      dup2\n      mstore\n      0x20\n      add\n      0x00\n      keccak256\n      sload\n        /* \"BurgerShop.sol\":1572:1611  uint256 value = userRefunds[msg.sender] */\n      swap1\n      pop\n        /* \"BurgerShop.sol\":1648:1649  0 */\n      0x00\n        /* \"BurgerShop.sol\":1622:1633  userRefunds */\n      0x04\n        /* \"BurgerShop.sol\":1622:1645  userRefunds[msg.sender] */\n      0x00\n        /* \"BurgerShop.sol\":1634:1644  msg.sender */\n      caller\n        /* \"BurgerShop.sol\":1622:1645  userRefunds[msg.sender] */\n      0xffffffffffffffffffffffffffffffffffffffff\n      and\n      0xffffffffffffffffffffffffffffffffffffffff\n      and\n      dup2\n      mstore\n      0x20\n      add\n      swap1\n      dup2\n      mstore\n      0x20\n      add\n      0x00\n      keccak256\n        /* \"BurgerShop.sol\":1622:1649  userRefunds[msg.sender] = 0 */\n      dup2\n      swap1\n      sstore\n      pop\n        /* \"BurgerShop.sol\":1661:1670  bool sent */\n      0x00\n        /* \"BurgerShop.sol\":1684:1694  msg.sender */\n      caller\n        /* \"BurgerShop.sol\":1676:1700  payable(msg.sender).call */\n      0xffffffffffffffffffffffffffffffffffffffff\n      and\n        /* \"BurgerShop.sol\":1708:1713  value */\n      dup3\n        /* \"BurgerShop.sol\":1676:1718  payable(msg.sender).call{value: value}(\"\") */\n      mload(0x40)\n      tag_129\n      swap1\n      tag_130\n      jump\t// in\n    tag_129:\n      0x00\n      mload(0x40)\n      dup1\n      dup4\n      sub\n      dup2\n      dup6\n      dup8\n      gas\n      call\n      swap3\n      pop\n      pop\n      pop\n      returndatasize\n      dup1\n      0x00\n      dup2\n      eq\n      tag_133\n      jumpi\n      mload(0x40)\n      swap2\n      pop\n      and(add(returndatasize, 0x3f), not(0x1f))\n      dup3\n      add\n      0x40\n      mstore\n      returndatasize\n      dup3\n      mstore\n      returndatasize\n      0x00\n      0x20\n      dup5\n      add\n      returndatacopy\n      jump(tag_132)\n    tag_133:\n      0x60\n      swap2\n      pop\n    tag_132:\n      pop\n        /* \"BurgerShop.sol\":1660:1718  (bool sent, ) = payable(msg.sender).call{value: value}(\"\") */\n      pop\n      swap1\n      pop\n        /* \"BurgerShop.sol\":1736:1740  sent */\n      dup1\n        /* \"BurgerShop.sol\":1728:1741  require(sent) */\n      tag_134\n      jumpi\n      0x00\n      dup1\n      revert\n    tag_134:\n        /* \"BurgerShop.sol\":1562:1749  {... */\n      pop\n      pop\n        /* \"BurgerShop.sol\":1524:1749  function claimRefund() public payable {... */\n      jump\t// out\n        /* \"BurgerShop.sol\":1981:2113  function pickUpBurger() public isAtStage(Stages.deliverBurger) shopOpened notPaused{... */\n    tag_65:\n        /* \"BurgerShop.sol\":2022:2042  Stages.deliverBurger */\n      0x02\n        /* \"BurgerShop.sol\":960:966  _stage */\n      dup1\n        /* \"BurgerShop.sol\":941:966  burgerShopStage == _stage */\n      0x02\n      dup2\n      gt\n      iszero\n      tag_136\n      jumpi\n      tag_137\n      tag_109\n      jump\t// in\n    tag_137:\n    tag_136:\n        /* \"BurgerShop.sol\":941:956  burgerShopStage */\n      0x05\n      0x01\n      swap1\n      sload\n      swap1\n      0x0100\n      exp\n      swap1\n      div\n      0xff\n      and\n        /* \"BurgerShop.sol\":941:966  burgerShopStage == _stage */\n      0x02\n      dup2\n      gt\n      iszero\n      tag_138\n      jumpi\n      tag_139\n      tag_109\n      jump\t// in\n    tag_139:\n    tag_138:\n      eq\n        /* \"BurgerShop.sol\":933:992  require(burgerShopStage == _stage, \"Not at correct stage!\") */\n      tag_140\n      jumpi\n      mload(0x40)\n      0x08c379a000000000000000000000000000000000000000000000000000000000\n      dup2\n      mstore\n      0x04\n      add\n      tag_141\n      swap1\n      tag_114\n      jump\t// in\n    tag_141:\n      mload(0x40)\n      dup1\n      swap2\n      sub\n      swap1\n      revert\n    tag_140:\n        /* \"BurgerShop.sol\":644:653  startDate */\n      sload(0x02)\n        /* \"BurgerShop.sol\":626:641  block.timestamp */\n      timestamp\n        /* \"BurgerShop.sol\":626:653  block.timestamp > startDate */\n      gt\n        /* \"BurgerShop.sol\":618:671  require(block.timestamp > startDate, \"Not open yet!\") */\n      tag_143\n      jumpi\n      mload(0x40)\n      0x08c379a000000000000000000000000000000000000000000000000000000000\n      dup2\n      mstore\n      0x04\n      add\n      tag_144\n      swap1\n      tag_118\n      jump\t// in\n    tag_144:\n      mload(0x40)\n      dup1\n      swap2\n      sub\n      swap1\n      revert\n    tag_143:\n        /* \"BurgerShop.sol\":1072:1077  false */\n      0x00\n        /* \"BurgerShop.sol\":1062:1077  paused == false */\n      iszero\n      iszero\n        /* \"BurgerShop.sol\":1062:1068  paused */\n      0x05\n      0x00\n      swap1\n      sload\n      swap1\n      0x0100\n      exp\n      swap1\n      div\n      0xff\n      and\n        /* \"BurgerShop.sol\":1062:1077  paused == false */\n      iszero\n      iszero\n      eq\n        /* \"BurgerShop.sol\":1054:1078  require(paused == false) */\n      tag_146\n      jumpi\n      0x00\n      dup1\n      revert\n    tag_146:\n        /* \"BurgerShop.sol\":2074:2106  updateStage(Stages.readyToOrder) */\n      tag_148\n        /* \"BurgerShop.sol\":2086:2105  Stages.readyToOrder */\n      0x00\n        /* \"BurgerShop.sol\":2074:2085  updateStage */\n      tag_70\n        /* \"BurgerShop.sol\":2074:2106  updateStage(Stages.readyToOrder) */\n      jump\t// in\n    tag_148:\n        /* \"BurgerShop.sol\":1981:2113  function pickUpBurger() public isAtStage(Stages.deliverBurger) shopOpened notPaused{... */\n      pop\n      jump\t// out\n        /* \"BurgerShop.sol\":2119:2203  function updateStage(Stages _stage) public {... */\n    tag_70:\n        /* \"BurgerShop.sol\":2190:2196  _stage */\n      dup1\n        /* \"BurgerShop.sol\":2172:2187  burgerShopStage */\n      0x05\n      0x01\n        /* \"BurgerShop.sol\":2172:2196  burgerShopStage = _stage */\n      0x0100\n      exp\n      dup2\n      sload\n      dup2\n      0xff\n      mul\n      not\n      and\n      swap1\n      dup4\n      0x02\n      dup2\n      gt\n      iszero\n      tag_150\n      jumpi\n      tag_151\n      tag_109\n      jump\t// in\n    tag_151:\n    tag_150:\n      mul\n      or\n      swap1\n      sstore\n      pop\n        /* \"BurgerShop.sol\":2119:2203  function updateStage(Stages _stage) public {... */\n      pop\n      jump\t// out\n        /* \"BurgerShop.sol\":1856:1975  function madeBurger() public isAtStage(Stages.makeBurger) shopOpened {... */\n    tag_73:\n        /* \"BurgerShop.sol\":1895:1912  Stages.makeBurger */\n      0x01\n        /* \"BurgerShop.sol\":960:966  _stage */\n      dup1\n        /* \"BurgerShop.sol\":941:966  burgerShopStage == _stage */\n      0x02\n      dup2\n      gt\n      iszero\n      tag_153\n      jumpi\n      tag_154\n      tag_109\n      jump\t// in\n    tag_154:\n    tag_153:\n        /* \"BurgerShop.sol\":941:956  burgerShopStage */\n      0x05\n      0x01\n      swap1\n      sload\n      swap1\n      0x0100\n      exp\n      swap1\n      div\n      0xff\n      and\n        /* \"BurgerShop.sol\":941:966  burgerShopStage == _stage */\n      0x02\n      dup2\n      gt\n      iszero\n      tag_155\n      jumpi\n      tag_156\n      tag_109\n      jump\t// in\n    tag_156:\n    tag_155:\n      eq\n        /* \"BurgerShop.sol\":933:992  require(burgerShopStage == _stage, \"Not at correct stage!\") */\n      tag_157\n      jumpi\n      mload(0x40)\n      0x08c379a000000000000000000000000000000000000000000000000000000000\n      dup2\n      mstore\n      0x04\n      add\n      tag_158\n      swap1\n      tag_114\n      jump\t// in\n    tag_158:\n      mload(0x40)\n      dup1\n      swap2\n      sub\n      swap1\n      revert\n    tag_157:\n        /* \"BurgerShop.sol\":644:653  startDate */\n      sload(0x02)\n        /* \"BurgerShop.sol\":626:641  block.timestamp */\n      timestamp\n        /* \"BurgerShop.sol\":626:653  block.timestamp > startDate */\n      gt\n        /* \"BurgerShop.sol\":618:671  require(block.timestamp > startDate, \"Not open yet!\") */\n      tag_160\n      jumpi\n      mload(0x40)\n      0x08c379a000000000000000000000000000000000000000000000000000000000\n      dup2\n      mstore\n      0x04\n      add\n      tag_161\n      swap1\n      tag_118\n      jump\t// in\n    tag_161:\n      mload(0x40)\n      dup1\n      swap2\n      sub\n      swap1\n      revert\n    tag_160:\n        /* \"BurgerShop.sol\":1935:1968  updateStage(Stages.deliverBurger) */\n      tag_163\n        /* \"BurgerShop.sol\":1947:1967  Stages.deliverBurger */\n      0x02\n        /* \"BurgerShop.sol\":1935:1946  updateStage */\n      tag_70\n        /* \"BurgerShop.sol\":1935:1968  updateStage(Stages.deliverBurger) */\n      jump\t// in\n    tag_163:\n        /* \"BurgerShop.sol\":1856:1975  function madeBurger() public isAtStage(Stages.makeBurger) shopOpened {... */\n      pop\n      jump\t// out\n        /* \"BurgerShop.sol\":2209:2403  function getRandomNum(uint256 _seed) public view returns(uint256) {... */\n    tag_77:\n        /* \"BurgerShop.sol\":2266:2273  uint256 */\n      0x00\n        /* \"BurgerShop.sol\":2285:2300  uint256 randNum */\n      dup1\n        /* \"BurgerShop.sol\":2371:2372  1 */\n      0x01\n        /* \"BurgerShop.sol\":2366:2368  10 */\n      0x0a\n        /* \"BurgerShop.sol\":2338:2353  block.timestamp */\n      timestamp\n        /* \"BurgerShop.sol\":2355:2360  _seed */\n      dup6\n        /* \"BurgerShop.sol\":2321:2361  abi.encodePacked(block.timestamp, _seed) */\n      add(0x20, mload(0x40))\n      tag_165\n      swap3\n      swap2\n      swap1\n      tag_166\n      jump\t// in\n    tag_165:\n      mload(0x40)\n      0x20\n      dup2\n      dup4\n      sub\n      sub\n      dup2\n      mstore\n      swap1\n      0x40\n      mstore\n        /* \"BurgerShop.sol\":2311:2362  keccak256(abi.encodePacked(block.timestamp, _seed)) */\n      dup1\n      mload\n      swap1\n      0x20\n      add\n      keccak256\n        /* \"BurgerShop.sol\":2303:2363  uint256(keccak256(abi.encodePacked(block.timestamp, _seed))) */\n      0x00\n      shr\n        /* \"BurgerShop.sol\":2303:2368  uint256(keccak256(abi.encodePacked(block.timestamp, _seed))) % 10 */\n      tag_167\n      swap2\n      swap1\n      tag_168\n      jump\t// in\n    tag_167:\n        /* \"BurgerShop.sol\":2303:2372  uint256(keccak256(abi.encodePacked(block.timestamp, _seed))) % 10 + 1 */\n      tag_169\n      swap2\n      swap1\n      tag_170\n      jump\t// in\n    tag_169:\n        /* \"BurgerShop.sol\":2285:2372  uint256 randNum = uint256(keccak256(abi.encodePacked(block.timestamp, _seed))) % 10 + 1 */\n      swap1\n      pop\n        /* \"BurgerShop.sol\":2389:2396  randNum */\n      dup1\n        /* \"BurgerShop.sol\":2382:2396  return randNum */\n      swap2\n      pop\n      pop\n        /* \"BurgerShop.sol\":2209:2403  function getRandomNum(uint256 _seed) public view returns(uint256) {... */\n      swap2\n      swap1\n      pop\n      jump\t// out\n        /* \"BurgerShop.sol\":496:547  Stages public burgerShopStage = Stages.readyToOrder */\n    tag_81:\n      0x05\n      0x01\n      swap1\n      sload\n      swap1\n      0x0100\n      exp\n      swap1\n      div\n      0xff\n      and\n      dup2\n      jump\t// out\n        /* \"BurgerShop.sol\":93:130  uint256 public normalCost = 0.2 ether */\n    tag_86:\n      sload(0x00)\n      dup2\n      jump\t// out\n        /* \"#utility.yul\":7:84   */\n    tag_171:\n        /* \"#utility.yul\":44:51   */\n      0x00\n        /* \"#utility.yul\":73:78   */\n      dup2\n        /* \"#utility.yul\":62:78   */\n      swap1\n      pop\n        /* \"#utility.yul\":7:84   */\n      swap2\n      swap1\n      pop\n      jump\t// out\n        /* \"#utility.yul\":90:208   */\n    tag_172:\n        /* \"#utility.yul\":177:201   */\n      tag_212\n        /* \"#utility.yul\":195:200   */\n      dup2\n        /* \"#utility.yul\":177:201   */\n      tag_171\n      jump\t// in\n    tag_212:\n        /* \"#utility.yul\":172:175   */\n      dup3\n        /* \"#utility.yul\":165:202   */\n      mstore\n        /* \"#utility.yul\":90:208   */\n      pop\n      pop\n      jump\t// out\n        /* \"#utility.yul\":214:436   */\n    tag_25:\n        /* \"#utility.yul\":307:311   */\n      0x00\n        /* \"#utility.yul\":345:347   */\n      0x20\n        /* \"#utility.yul\":334:343   */\n      dup3\n        /* \"#utility.yul\":330:348   */\n      add\n        /* \"#utility.yul\":322:348   */\n      swap1\n      pop\n        /* \"#utility.yul\":358:429   */\n      tag_214\n        /* \"#utility.yul\":426:427   */\n      0x00\n        /* \"#utility.yul\":415:424   */\n      dup4\n        /* \"#utility.yul\":411:428   */\n      add\n        /* \"#utility.yul\":402:408   */\n      dup5\n        /* \"#utility.yul\":358:429   */\n      tag_172\n      jump\t// in\n    tag_214:\n        /* \"#utility.yul\":214:436   */\n      swap3\n      swap2\n      pop\n      pop\n      jump\t// out\n        /* \"#utility.yul\":523:640   */\n    tag_174:\n        /* \"#utility.yul\":632:633   */\n      0x00\n        /* \"#utility.yul\":629:630   */\n      dup1\n        /* \"#utility.yul\":622:634   */\n      revert\n        /* \"#utility.yul\":769:895   */\n    tag_176:\n        /* \"#utility.yul\":806:813   */\n      0x00\n        /* \"#utility.yul\":846:888   */\n      0xffffffffffffffffffffffffffffffffffffffff\n        /* \"#utility.yul\":839:844   */\n      dup3\n        /* \"#utility.yul\":835:889   */\n      and\n        /* \"#utility.yul\":824:889   */\n      swap1\n      pop\n        /* \"#utility.yul\":769:895   */\n      swap2\n      swap1\n      pop\n      jump\t// out\n        /* \"#utility.yul\":901:997   */\n    tag_177:\n        /* \"#utility.yul\":938:945   */\n      0x00\n        /* \"#utility.yul\":967:991   */\n      tag_220\n        /* \"#utility.yul\":985:990   */\n      dup3\n        /* \"#utility.yul\":967:991   */\n      tag_176\n      jump\t// in\n    tag_220:\n        /* \"#utility.yul\":956:991   */\n      swap1\n      pop\n        /* \"#utility.yul\":901:997   */\n      swap2\n      swap1\n      pop\n      jump\t// out\n        /* \"#utility.yul\":1003:1125   */\n    tag_178:\n        /* \"#utility.yul\":1076:1100   */\n      tag_222\n        /* \"#utility.yul\":1094:1099   */\n      dup2\n        /* \"#utility.yul\":1076:1100   */\n      tag_177\n      jump\t// in\n    tag_222:\n        /* \"#utility.yul\":1069:1074   */\n      dup2\n        /* \"#utility.yul\":1066:1101   */\n      eq\n        /* \"#utility.yul\":1056:1119   */\n      tag_223\n      jumpi\n        /* \"#utility.yul\":1115:1116   */\n      0x00\n        /* \"#utility.yul\":1112:1113   */\n      dup1\n        /* \"#utility.yul\":1105:1117   */\n      revert\n        /* \"#utility.yul\":1056:1119   */\n    tag_223:\n        /* \"#utility.yul\":1003:1125   */\n      pop\n      jump\t// out\n        /* \"#utility.yul\":1131:1270   */\n    tag_179:\n        /* \"#utility.yul\":1177:1182   */\n      0x00\n        /* \"#utility.yul\":1215:1221   */\n      dup2\n        /* \"#utility.yul\":1202:1222   */\n      calldataload\n        /* \"#utility.yul\":1193:1222   */\n      swap1\n      pop\n        /* \"#utility.yul\":1231:1264   */\n      tag_225\n        /* \"#utility.yul\":1258:1263   */\n      dup2\n        /* \"#utility.yul\":1231:1264   */\n      tag_178\n      jump\t// in\n    tag_225:\n        /* \"#utility.yul\":1131:1270   */\n      swap3\n      swap2\n      pop\n      pop\n      jump\t// out\n        /* \"#utility.yul\":1276:1398   */\n    tag_180:\n        /* \"#utility.yul\":1349:1373   */\n      tag_227\n        /* \"#utility.yul\":1367:1372   */\n      dup2\n        /* \"#utility.yul\":1349:1373   */\n      tag_171\n      jump\t// in\n    tag_227:\n        /* \"#utility.yul\":1342:1347   */\n      dup2\n        /* \"#utility.yul\":1339:1374   */\n      eq\n        /* \"#utility.yul\":1329:1392   */\n      tag_228\n      jumpi\n        /* \"#utility.yul\":1388:1389   */\n      0x00\n        /* \"#utility.yul\":1385:1386   */\n      dup1\n        /* \"#utility.yul\":1378:1390   */\n      revert\n        /* \"#utility.yul\":1329:1392   */\n    tag_228:\n        /* \"#utility.yul\":1276:1398   */\n      pop\n      jump\t// out\n        /* \"#utility.yul\":1404:1543   */\n    tag_181:\n        /* \"#utility.yul\":1450:1455   */\n      0x00\n        /* \"#utility.yul\":1488:1494   */\n      dup2\n        /* \"#utility.yul\":1475:1495   */\n      calldataload\n        /* \"#utility.yul\":1466:1495   */\n      swap1\n      pop\n        /* \"#utility.yul\":1504:1537   */\n      tag_230\n        /* \"#utility.yul\":1531:1536   */\n      dup2\n        /* \"#utility.yul\":1504:1537   */\n      tag_180\n      jump\t// in\n    tag_230:\n        /* \"#utility.yul\":1404:1543   */\n      swap3\n      swap2\n      pop\n      pop\n      jump\t// out\n        /* \"#utility.yul\":1549:2023   */\n    tag_28:\n        /* \"#utility.yul\":1617:1623   */\n      0x00\n        /* \"#utility.yul\":1625:1631   */\n      dup1\n        /* \"#utility.yul\":1674:1676   */\n      0x40\n        /* \"#utility.yul\":1662:1671   */\n      dup4\n        /* \"#utility.yul\":1653:1660   */\n      dup6\n        /* \"#utility.yul\":1649:1672   */\n      sub\n        /* \"#utility.yul\":1645:1677   */\n      slt\n        /* \"#utility.yul\":1642:1761   */\n      iszero\n      tag_232\n      jumpi\n        /* \"#utility.yul\":1680:1759   */\n      tag_233\n      tag_174\n      jump\t// in\n    tag_233:\n        /* \"#utility.yul\":1642:1761   */\n    tag_232:\n        /* \"#utility.yul\":1800:1801   */\n      0x00\n        /* \"#utility.yul\":1825:1878   */\n      tag_234\n        /* \"#utility.yul\":1870:1877   */\n      dup6\n        /* \"#utility.yul\":1861:1867   */\n      dup3\n        /* \"#utility.yul\":1850:1859   */\n      dup7\n        /* \"#utility.yul\":1846:1868   */\n      add\n        /* \"#utility.yul\":1825:1878   */\n      tag_179\n      jump\t// in\n    tag_234:\n        /* \"#utility.yul\":1815:1878   */\n      swap3\n      pop\n        /* \"#utility.yul\":1771:1888   */\n      pop\n        /* \"#utility.yul\":1927:1929   */\n      0x20\n        /* \"#utility.yul\":1953:2006   */\n      tag_235\n        /* \"#utility.yul\":1998:2005   */\n      dup6\n        /* \"#utility.yul\":1989:1995   */\n      dup3\n        /* \"#utility.yul\":1978:1987   */\n      dup7\n        /* \"#utility.yul\":1974:1996   */\n      add\n        /* \"#utility.yul\":1953:2006   */\n      tag_181\n      jump\t// in\n    tag_235:\n        /* \"#utility.yul\":1943:2006   */\n      swap2\n      pop\n        /* \"#utility.yul\":1898:2016   */\n      pop\n        /* \"#utility.yul\":1549:2023   */\n      swap3\n      pop\n      swap3\n      swap1\n      pop\n      jump\t// out\n        /* \"#utility.yul\":2029:2358   */\n    tag_36:\n        /* \"#utility.yul\":2088:2094   */\n      0x00\n        /* \"#utility.yul\":2137:2139   */\n      0x20\n        /* \"#utility.yul\":2125:2134   */\n      dup3\n        /* \"#utility.yul\":2116:2123   */\n      dup5\n        /* \"#utility.yul\":2112:2135   */\n      sub\n        /* \"#utility.yul\":2108:2140   */\n      slt\n        /* \"#utility.yul\":2105:2224   */\n      iszero\n      tag_237\n      jumpi\n        /* \"#utility.yul\":2143:2222   */\n      tag_238\n      tag_174\n      jump\t// in\n    tag_238:\n        /* \"#utility.yul\":2105:2224   */\n    tag_237:\n        /* \"#utility.yul\":2263:2264   */\n      0x00\n        /* \"#utility.yul\":2288:2341   */\n      tag_239\n        /* \"#utility.yul\":2333:2340   */\n      dup5\n        /* \"#utility.yul\":2324:2330   */\n      dup3\n        /* \"#utility.yul\":2313:2322   */\n      dup6\n        /* \"#utility.yul\":2309:2331   */\n      add\n        /* \"#utility.yul\":2288:2341   */\n      tag_181\n      jump\t// in\n    tag_239:\n        /* \"#utility.yul\":2278:2341   */\n      swap2\n      pop\n        /* \"#utility.yul\":2234:2351   */\n      pop\n        /* \"#utility.yul\":2029:2358   */\n      swap3\n      swap2\n      pop\n      pop\n      jump\t// out\n        /* \"#utility.yul\":2364:2454   */\n    tag_182:\n        /* \"#utility.yul\":2398:2405   */\n      0x00\n        /* \"#utility.yul\":2441:2446   */\n      dup2\n        /* \"#utility.yul\":2434:2447   */\n      iszero\n        /* \"#utility.yul\":2427:2448   */\n      iszero\n        /* \"#utility.yul\":2416:2448   */\n      swap1\n      pop\n        /* \"#utility.yul\":2364:2454   */\n      swap2\n      swap1\n      pop\n      jump\t// out\n        /* \"#utility.yul\":2460:2569   */\n    tag_183:\n        /* \"#utility.yul\":2541:2562   */\n      tag_242\n        /* \"#utility.yul\":2556:2561   */\n      dup2\n        /* \"#utility.yul\":2541:2562   */\n      tag_182\n      jump\t// in\n    tag_242:\n        /* \"#utility.yul\":2536:2539   */\n      dup3\n        /* \"#utility.yul\":2529:2563   */\n      mstore\n        /* \"#utility.yul\":2460:2569   */\n      pop\n      pop\n      jump\t// out\n        /* \"#utility.yul\":2575:2785   */\n    tag_42:\n        /* \"#utility.yul\":2662:2666   */\n      0x00\n        /* \"#utility.yul\":2700:2702   */\n      0x20\n        /* \"#utility.yul\":2689:2698   */\n      dup3\n        /* \"#utility.yul\":2685:2703   */\n      add\n        /* \"#utility.yul\":2677:2703   */\n      swap1\n      pop\n        /* \"#utility.yul\":2713:2778   */\n      tag_244\n        /* \"#utility.yul\":2775:2776   */\n      0x00\n        /* \"#utility.yul\":2764:2773   */\n      dup4\n        /* \"#utility.yul\":2760:2777   */\n      add\n        /* \"#utility.yul\":2751:2757   */\n      dup5\n        /* \"#utility.yul\":2713:2778   */\n      tag_183\n      jump\t// in\n    tag_244:\n        /* \"#utility.yul\":2575:2785   */\n      swap3\n      swap2\n      pop\n      pop\n      jump\t// out\n        /* \"#utility.yul\":2791:3120   */\n    tag_49:\n        /* \"#utility.yul\":2850:2856   */\n      0x00\n        /* \"#utility.yul\":2899:2901   */\n      0x20\n        /* \"#utility.yul\":2887:2896   */\n      dup3\n        /* \"#utility.yul\":2878:2885   */\n      dup5\n        /* \"#utility.yul\":2874:2897   */\n      sub\n        /* \"#utility.yul\":2870:2902   */\n      slt\n        /* \"#utility.yul\":2867:2986   */\n      iszero\n      tag_246\n      jumpi\n        /* \"#utility.yul\":2905:2984   */\n      tag_247\n      tag_174\n      jump\t// in\n    tag_247:\n        /* \"#utility.yul\":2867:2986   */\n    tag_246:\n        /* \"#utility.yul\":3025:3026   */\n      0x00\n        /* \"#utility.yul\":3050:3103   */\n      tag_248\n        /* \"#utility.yul\":3095:3102   */\n      dup5\n        /* \"#utility.yul\":3086:3092   */\n      dup3\n        /* \"#utility.yul\":3075:3084   */\n      dup6\n        /* \"#utility.yul\":3071:3093   */\n      add\n        /* \"#utility.yul\":3050:3103   */\n      tag_179\n      jump\t// in\n    tag_248:\n        /* \"#utility.yul\":3040:3103   */\n      swap2\n      pop\n        /* \"#utility.yul\":2996:3113   */\n      pop\n        /* \"#utility.yul\":2791:3120   */\n      swap3\n      swap2\n      pop\n      pop\n      jump\t// out\n        /* \"#utility.yul\":3126:3244   */\n    tag_184:\n        /* \"#utility.yul\":3213:3237   */\n      tag_250\n        /* \"#utility.yul\":3231:3236   */\n      dup2\n        /* \"#utility.yul\":3213:3237   */\n      tag_177\n      jump\t// in\n    tag_250:\n        /* \"#utility.yul\":3208:3211   */\n      dup3\n        /* \"#utility.yul\":3201:3238   */\n      mstore\n        /* \"#utility.yul\":3126:3244   */\n      pop\n      pop\n      jump\t// out\n        /* \"#utility.yul\":3250:3472   */\n    tag_56:\n        /* \"#utility.yul\":3343:3347   */\n      0x00\n        /* \"#utility.yul\":3381:3383   */\n      0x20\n        /* \"#utility.yul\":3370:3379   */\n      dup3\n        /* \"#utility.yul\":3366:3384   */\n      add\n        /* \"#utility.yul\":3358:3384   */\n      swap1\n      pop\n        /* \"#utility.yul\":3394:3465   */\n      tag_252\n        /* \"#utility.yul\":3462:3463   */\n      0x00\n        /* \"#utility.yul\":3451:3460   */\n      dup4\n        /* \"#utility.yul\":3447:3464   */\n      add\n        /* \"#utility.yul\":3438:3444   */\n      dup5\n        /* \"#utility.yul\":3394:3465   */\n      tag_184\n      jump\t// in\n    tag_252:\n        /* \"#utility.yul\":3250:3472   */\n      swap3\n      swap2\n      pop\n      pop\n      jump\t// out\n        /* \"#utility.yul\":3478:3586   */\n    tag_185:\n        /* \"#utility.yul\":3560:3561   */\n      0x03\n        /* \"#utility.yul\":3553:3558   */\n      dup2\n        /* \"#utility.yul\":3550:3562   */\n      lt\n        /* \"#utility.yul\":3540:3580   */\n      tag_254\n      jumpi\n        /* \"#utility.yul\":3576:3577   */\n      0x00\n        /* \"#utility.yul\":3573:3574   */\n      dup1\n        /* \"#utility.yul\":3566:3578   */\n      revert\n        /* \"#utility.yul\":3540:3580   */\n    tag_254:\n        /* \"#utility.yul\":3478:3586   */\n      pop\n      jump\t// out\n        /* \"#utility.yul\":3592:3749   */\n    tag_186:\n        /* \"#utility.yul\":3647:3652   */\n      0x00\n        /* \"#utility.yul\":3685:3691   */\n      dup2\n        /* \"#utility.yul\":3672:3692   */\n      calldataload\n        /* \"#utility.yul\":3663:3692   */\n      swap1\n      pop\n        /* \"#utility.yul\":3701:3743   */\n      tag_256\n        /* \"#utility.yul\":3737:3742   */\n      dup2\n        /* \"#utility.yul\":3701:3743   */\n      tag_185\n      jump\t// in\n    tag_256:\n        /* \"#utility.yul\":3592:3749   */\n      swap3\n      swap2\n      pop\n      pop\n      jump\t// out\n        /* \"#utility.yul\":3755:4102   */\n    tag_69:\n        /* \"#utility.yul\":3823:3829   */\n      0x00\n        /* \"#utility.yul\":3872:3874   */\n      0x20\n        /* \"#utility.yul\":3860:3869   */\n      dup3\n        /* \"#utility.yul\":3851:3858   */\n      dup5\n        /* \"#utility.yul\":3847:3870   */\n      sub\n        /* \"#utility.yul\":3843:3875   */\n      slt\n        /* \"#utility.yul\":3840:3959   */\n      iszero\n      tag_258\n      jumpi\n        /* \"#utility.yul\":3878:3957   */\n      tag_259\n      tag_174\n      jump\t// in\n    tag_259:\n        /* \"#utility.yul\":3840:3959   */\n    tag_258:\n        /* \"#utility.yul\":3998:3999   */\n      0x00\n        /* \"#utility.yul\":4023:4085   */\n      tag_260\n        /* \"#utility.yul\":4077:4084   */\n      dup5\n        /* \"#utility.yul\":4068:4074   */\n      dup3\n        /* \"#utility.yul\":4057:4066   */\n      dup6\n        /* \"#utility.yul\":4053:4075   */\n      add\n        /* \"#utility.yul\":4023:4085   */\n      tag_186\n      jump\t// in\n    tag_260:\n        /* \"#utility.yul\":4013:4085   */\n      swap2\n      pop\n        /* \"#utility.yul\":3969:4095   */\n      pop\n        /* \"#utility.yul\":3755:4102   */\n      swap3\n      swap2\n      pop\n      pop\n      jump\t// out\n        /* \"#utility.yul\":4108:4288   */\n    tag_109:\n        /* \"#utility.yul\":4156:4233   */\n      0x4e487b7100000000000000000000000000000000000000000000000000000000\n        /* \"#utility.yul\":4153:4154   */\n      0x00\n        /* \"#utility.yul\":4146:4234   */\n      mstore\n        /* \"#utility.yul\":4253:4257   */\n      0x21\n        /* \"#utility.yul\":4250:4251   */\n      0x04\n        /* \"#utility.yul\":4243:4258   */\n      mstore\n        /* \"#utility.yul\":4277:4281   */\n      0x24\n        /* \"#utility.yul\":4274:4275   */\n      0x00\n        /* \"#utility.yul\":4267:4282   */\n      revert\n        /* \"#utility.yul\":4294:4408   */\n    tag_187:\n        /* \"#utility.yul\":4376:4377   */\n      0x03\n        /* \"#utility.yul\":4369:4374   */\n      dup2\n        /* \"#utility.yul\":4366:4378   */\n      lt\n        /* \"#utility.yul\":4356:4402   */\n      tag_263\n      jumpi\n        /* \"#utility.yul\":4382:4400   */\n      tag_264\n      tag_109\n      jump\t// in\n    tag_264:\n        /* \"#utility.yul\":4356:4402   */\n    tag_263:\n        /* \"#utility.yul\":4294:4408   */\n      pop\n      jump\t// out\n        /* \"#utility.yul\":4414:4543   */\n    tag_188:\n        /* \"#utility.yul\":4460:4467   */\n      0x00\n        /* \"#utility.yul\":4489:4494   */\n      dup2\n        /* \"#utility.yul\":4478:4494   */\n      swap1\n      pop\n        /* \"#utility.yul\":4495:4537   */\n      tag_266\n        /* \"#utility.yul\":4531:4536   */\n      dup3\n        /* \"#utility.yul\":4495:4537   */\n      tag_187\n      jump\t// in\n    tag_266:\n        /* \"#utility.yul\":4414:4543   */\n      swap2\n      swap1\n      pop\n      jump\t// out\n        /* \"#utility.yul\":4549:4678   */\n    tag_189:\n        /* \"#utility.yul\":4606:4615   */\n      0x00\n        /* \"#utility.yul\":4639:4672   */\n      tag_268\n        /* \"#utility.yul\":4666:4671   */\n      dup3\n        /* \"#utility.yul\":4639:4672   */\n      tag_188\n      jump\t// in\n    tag_268:\n        /* \"#utility.yul\":4626:4672   */\n      swap1\n      pop\n        /* \"#utility.yul\":4549:4678   */\n      swap2\n      swap1\n      pop\n      jump\t// out\n        /* \"#utility.yul\":4684:4829   */\n    tag_190:\n        /* \"#utility.yul\":4778:4822   */\n      tag_270\n        /* \"#utility.yul\":4816:4821   */\n      dup2\n        /* \"#utility.yul\":4778:4822   */\n      tag_189\n      jump\t// in\n    tag_270:\n        /* \"#utility.yul\":4773:4776   */\n      dup3\n        /* \"#utility.yul\":4766:4823   */\n      mstore\n        /* \"#utility.yul\":4684:4829   */\n      pop\n      pop\n      jump\t// out\n        /* \"#utility.yul\":4835:5071   */\n    tag_83:\n        /* \"#utility.yul\":4935:4939   */\n      0x00\n        /* \"#utility.yul\":4973:4975   */\n      0x20\n        /* \"#utility.yul\":4962:4971   */\n      dup3\n        /* \"#utility.yul\":4958:4976   */\n      add\n        /* \"#utility.yul\":4950:4976   */\n      swap1\n      pop\n        /* \"#utility.yul\":4986:5064   */\n      tag_272\n        /* \"#utility.yul\":5061:5062   */\n      0x00\n        /* \"#utility.yul\":5050:5059   */\n      dup4\n        /* \"#utility.yul\":5046:5063   */\n      add\n        /* \"#utility.yul\":5037:5043   */\n      dup5\n        /* \"#utility.yul\":4986:5064   */\n      tag_190\n      jump\t// in\n    tag_272:\n        /* \"#utility.yul\":4835:5071   */\n      swap3\n      swap2\n      pop\n      pop\n      jump\t// out\n        /* \"#utility.yul\":5077:5246   */\n    tag_191:\n        /* \"#utility.yul\":5161:5172   */\n      0x00\n        /* \"#utility.yul\":5195:5201   */\n      dup3\n        /* \"#utility.yul\":5190:5193   */\n      dup3\n        /* \"#utility.yul\":5183:5202   */\n      mstore\n        /* \"#utility.yul\":5235:5239   */\n      0x20\n        /* \"#utility.yul\":5230:5233   */\n      dup3\n        /* \"#utility.yul\":5226:5240   */\n      add\n        /* \"#utility.yul\":5211:5240   */\n      swap1\n      pop\n        /* \"#utility.yul\":5077:5246   */\n      swap3\n      swap2\n      pop\n      pop\n      jump\t// out\n        /* \"#utility.yul\":5252:5416   */\n    tag_192:\n        /* \"#utility.yul\":5392:5408   */\n      0x4e6f7420746865206f776e657221000000000000000000000000000000000000\n        /* \"#utility.yul\":5388:5389   */\n      0x00\n        /* \"#utility.yul\":5380:5386   */\n      dup3\n        /* \"#utility.yul\":5376:5390   */\n      add\n        /* \"#utility.yul\":5369:5409   */\n      mstore\n        /* \"#utility.yul\":5252:5416   */\n      pop\n      jump\t// out\n        /* \"#utility.yul\":5422:5788   */\n    tag_193:\n        /* \"#utility.yul\":5564:5567   */\n      0x00\n        /* \"#utility.yul\":5585:5652   */\n      tag_276\n        /* \"#utility.yul\":5649:5651   */\n      0x0e\n        /* \"#utility.yul\":5644:5647   */\n      dup4\n        /* \"#utility.yul\":5585:5652   */\n      tag_191\n      jump\t// in\n    tag_276:\n        /* \"#utility.yul\":5578:5652   */\n      swap2\n      pop\n        /* \"#utility.yul\":5661:5754   */\n      tag_277\n        /* \"#utility.yul\":5750:5753   */\n      dup3\n        /* \"#utility.yul\":5661:5754   */\n      tag_192\n      jump\t// in\n    tag_277:\n        /* \"#utility.yul\":5779:5781   */\n      0x20\n        /* \"#utility.yul\":5774:5777   */\n      dup3\n        /* \"#utility.yul\":5770:5782   */\n      add\n        /* \"#utility.yul\":5763:5782   */\n      swap1\n      pop\n        /* \"#utility.yul\":5422:5788   */\n      swap2\n      swap1\n      pop\n      jump\t// out\n        /* \"#utility.yul\":5794:6213   */\n    tag_91:\n        /* \"#utility.yul\":5960:5964   */\n      0x00\n        /* \"#utility.yul\":5998:6000   */\n      0x20\n        /* \"#utility.yul\":5987:5996   */\n      dup3\n        /* \"#utility.yul\":5983:6001   */\n      add\n        /* \"#utility.yul\":5975:6001   */\n      swap1\n      pop\n        /* \"#utility.yul\":6047:6056   */\n      dup2\n        /* \"#utility.yul\":6041:6045   */\n      dup2\n        /* \"#utility.yul\":6037:6057   */\n      sub\n        /* \"#utility.yul\":6033:6034   */\n      0x00\n        /* \"#utility.yul\":6022:6031   */\n      dup4\n        /* \"#utility.yul\":6018:6035   */\n      add\n        /* \"#utility.yul\":6011:6058   */\n      mstore\n        /* \"#utility.yul\":6075:6206   */\n      tag_279\n        /* \"#utility.yul\":6201:6205   */\n      dup2\n        /* \"#utility.yul\":6075:6206   */\n      tag_193\n      jump\t// in\n    tag_279:\n        /* \"#utility.yul\":6067:6206   */\n      swap1\n      pop\n        /* \"#utility.yul\":5794:6213   */\n      swap2\n      swap1\n      pop\n      jump\t// out\n        /* \"#utility.yul\":6219:6392   */\n    tag_194:\n        /* \"#utility.yul\":6359:6384   */\n      0x4e6f742074686520636f727265637420616d70756e7421000000000000000000\n        /* \"#utility.yul\":6355:6356   */\n      0x00\n        /* \"#utility.yul\":6347:6353   */\n      dup3\n        /* \"#utility.yul\":6343:6357   */\n      add\n        /* \"#utility.yul\":6336:6385   */\n      mstore\n        /* \"#utility.yul\":6219:6392   */\n      pop\n      jump\t// out\n        /* \"#utility.yul\":6398:6764   */\n    tag_195:\n        /* \"#utility.yul\":6540:6543   */\n      0x00\n        /* \"#utility.yul\":6561:6628   */\n      tag_282\n        /* \"#utility.yul\":6625:6627   */\n      0x17\n        /* \"#utility.yul\":6620:6623   */\n      dup4\n        /* \"#utility.yul\":6561:6628   */\n      tag_191\n      jump\t// in\n    tag_282:\n        /* \"#utility.yul\":6554:6628   */\n      swap2\n      pop\n        /* \"#utility.yul\":6637:6730   */\n      tag_283\n        /* \"#utility.yul\":6726:6729   */\n      dup3\n        /* \"#utility.yul\":6637:6730   */\n      tag_194\n      jump\t// in\n    tag_283:\n        /* \"#utility.yul\":6755:6757   */\n      0x20\n        /* \"#utility.yul\":6750:6753   */\n      dup3\n        /* \"#utility.yul\":6746:6758   */\n      add\n        /* \"#utility.yul\":6739:6758   */\n      swap1\n      pop\n        /* \"#utility.yul\":6398:6764   */\n      swap2\n      swap1\n      pop\n      jump\t// out\n        /* \"#utility.yul\":6770:7189   */\n    tag_96:\n        /* \"#utility.yul\":6936:6940   */\n      0x00\n        /* \"#utility.yul\":6974:6976   */\n      0x20\n        /* \"#utility.yul\":6963:6972   */\n      dup3\n        /* \"#utility.yul\":6959:6977   */\n      add\n        /* \"#utility.yul\":6951:6977   */\n      swap1\n      pop\n        /* \"#utility.yul\":7023:7032   */\n      dup2\n        /* \"#utility.yul\":7017:7021   */\n      dup2\n        /* \"#utility.yul\":7013:7033   */\n      sub\n        /* \"#utility.yul\":7009:7010   */\n      0x00\n        /* \"#utility.yul\":6998:7007   */\n      dup4\n        /* \"#utility.yul\":6994:7011   */\n      add\n        /* \"#utility.yul\":6987:7034   */\n      mstore\n        /* \"#utility.yul\":7051:7182   */\n      tag_285\n        /* \"#utility.yul\":7177:7181   */\n      dup2\n        /* \"#utility.yul\":7051:7182   */\n      tag_195\n      jump\t// in\n    tag_285:\n        /* \"#utility.yul\":7043:7182   */\n      swap1\n      pop\n        /* \"#utility.yul\":6770:7189   */\n      swap2\n      swap1\n      pop\n      jump\t// out\n        /* \"#utility.yul\":7195:7362   */\n    tag_196:\n        /* \"#utility.yul\":7335:7354   */\n      0x4e6f7420656e6f7567682066756e647321000000000000000000000000000000\n        /* \"#utility.yul\":7331:7332   */\n      0x00\n        /* \"#utility.yul\":7323:7329   */\n      dup3\n        /* \"#utility.yul\":7319:7333   */\n      add\n        /* \"#utility.yul\":7312:7355   */\n      mstore\n        /* \"#utility.yul\":7195:7362   */\n      pop\n      jump\t// out\n        /* \"#utility.yul\":7368:7734   */\n    tag_197:\n        /* \"#utility.yul\":7510:7513   */\n      0x00\n        /* \"#utility.yul\":7531:7598   */\n      tag_288\n        /* \"#utility.yul\":7595:7597   */\n      0x11\n        /* \"#utility.yul\":7590:7593   */\n      dup4\n        /* \"#utility.yul\":7531:7598   */\n      tag_191\n      jump\t// in\n    tag_288:\n        /* \"#utility.yul\":7524:7598   */\n      swap2\n      pop\n        /* \"#utility.yul\":7607:7700   */\n      tag_289\n        /* \"#utility.yul\":7696:7699   */\n      dup3\n        /* \"#utility.yul\":7607:7700   */\n      tag_196\n      jump\t// in\n    tag_289:\n        /* \"#utility.yul\":7725:7727   */\n      0x20\n        /* \"#utility.yul\":7720:7723   */\n      dup3\n        /* \"#utility.yul\":7716:7728   */\n      add\n        /* \"#utility.yul\":7709:7728   */\n      swap1\n      pop\n        /* \"#utility.yul\":7368:7734   */\n      swap2\n      swap1\n      pop\n      jump\t// out\n        /* \"#utility.yul\":7740:8159   */\n    tag_100:\n        /* \"#utility.yul\":7906:7910   */\n      0x00\n        /* \"#utility.yul\":7944:7946   */\n      0x20\n        /* \"#utility.yul\":7933:7942   */\n      dup3\n        /* \"#utility.yul\":7929:7947   */\n      add\n        /* \"#utility.yul\":7921:7947   */\n      swap1\n      pop\n        /* \"#utility.yul\":7993:8002   */\n      dup2\n        /* \"#utility.yul\":7987:7991   */\n      dup2\n        /* \"#utility.yul\":7983:8003   */\n      sub\n        /* \"#utility.yul\":7979:7980   */\n      0x00\n        /* \"#utility.yul\":7968:7977   */\n      dup4\n        /* \"#utility.yul\":7964:7981   */\n      add\n        /* \"#utility.yul\":7957:8004   */\n      mstore\n        /* \"#utility.yul\":8021:8152   */\n      tag_291\n        /* \"#utility.yul\":8147:8151   */\n      dup2\n        /* \"#utility.yul\":8021:8152   */\n      tag_197\n      jump\t// in\n    tag_291:\n        /* \"#utility.yul\":8013:8152   */\n      swap1\n      pop\n        /* \"#utility.yul\":7740:8159   */\n      swap2\n      swap1\n      pop\n      jump\t// out\n        /* \"#utility.yul\":8165:8336   */\n    tag_198:\n        /* \"#utility.yul\":8305:8328   */\n      0x4e6f7420617420636f7272656374207374616765210000000000000000000000\n        /* \"#utility.yul\":8301:8302   */\n      0x00\n        /* \"#utility.yul\":8293:8299   */\n      dup3\n        /* \"#utility.yul\":8289:8303   */\n      add\n        /* \"#utility.yul\":8282:8329   */\n      mstore\n        /* \"#utility.yul\":8165:8336   */\n      pop\n      jump\t// out\n        /* \"#utility.yul\":8342:8708   */\n    tag_199:\n        /* \"#utility.yul\":8484:8487   */\n      0x00\n        /* \"#utility.yul\":8505:8572   */\n      tag_294\n        /* \"#utility.yul\":8569:8571   */\n      0x15\n        /* \"#utility.yul\":8564:8567   */\n      dup4\n        /* \"#utility.yul\":8505:8572   */\n      tag_191\n      jump\t// in\n    tag_294:\n        /* \"#utility.yul\":8498:8572   */\n      swap2\n      pop\n        /* \"#utility.yul\":8581:8674   */\n      tag_295\n        /* \"#utility.yul\":8670:8673   */\n      dup3\n        /* \"#utility.yul\":8581:8674   */\n      tag_198\n      jump\t// in\n    tag_295:\n        /* \"#utility.yul\":8699:8701   */\n      0x20\n        /* \"#utility.yul\":8694:8697   */\n      dup3\n        /* \"#utility.yul\":8690:8702   */\n      add\n        /* \"#utility.yul\":8683:8702   */\n      swap1\n      pop\n        /* \"#utility.yul\":8342:8708   */\n      swap2\n      swap1\n      pop\n      jump\t// out\n        /* \"#utility.yul\":8714:9133   */\n    tag_114:\n        /* \"#utility.yul\":8880:8884   */\n      0x00\n        /* \"#utility.yul\":8918:8920   */\n      0x20\n        /* \"#utility.yul\":8907:8916   */\n      dup3\n        /* \"#utility.yul\":8903:8921   */\n      add\n        /* \"#utility.yul\":8895:8921   */\n      swap1\n      pop\n        /* \"#utility.yul\":8967:8976   */\n      dup2\n        /* \"#utility.yul\":8961:8965   */\n      dup2\n        /* \"#utility.yul\":8957:8977   */\n      sub\n        /* \"#utility.yul\":8953:8954   */\n      0x00\n        /* \"#utility.yul\":8942:8951   */\n      dup4\n        /* \"#utility.yul\":8938:8955   */\n      add\n        /* \"#utility.yul\":8931:8978   */\n      mstore\n        /* \"#utility.yul\":8995:9126   */\n      tag_297\n        /* \"#utility.yul\":9121:9125   */\n      dup2\n        /* \"#utility.yul\":8995:9126   */\n      tag_199\n      jump\t// in\n    tag_297:\n        /* \"#utility.yul\":8987:9126   */\n      swap1\n      pop\n        /* \"#utility.yul\":8714:9133   */\n      swap2\n      swap1\n      pop\n      jump\t// out\n        /* \"#utility.yul\":9139:9302   */\n    tag_200:\n        /* \"#utility.yul\":9279:9294   */\n      0x4e6f74206f70656e207965742100000000000000000000000000000000000000\n        /* \"#utility.yul\":9275:9276   */\n      0x00\n        /* \"#utility.yul\":9267:9273   */\n      dup3\n        /* \"#utility.yul\":9263:9277   */\n      add\n        /* \"#utility.yul\":9256:9295   */\n      mstore\n        /* \"#utility.yul\":9139:9302   */\n      pop\n      jump\t// out\n        /* \"#utility.yul\":9308:9674   */\n    tag_201:\n        /* \"#utility.yul\":9450:9453   */\n      0x00\n        /* \"#utility.yul\":9471:9538   */\n      tag_300\n        /* \"#utility.yul\":9535:9537   */\n      0x0d\n        /* \"#utility.yul\":9530:9533   */\n      dup4\n        /* \"#utility.yul\":9471:9538   */\n      tag_191\n      jump\t// in\n    tag_300:\n        /* \"#utility.yul\":9464:9538   */\n      swap2\n      pop\n        /* \"#utility.yul\":9547:9640   */\n      tag_301\n        /* \"#utility.yul\":9636:9639   */\n      dup3\n        /* \"#utility.yul\":9547:9640   */\n      tag_200\n      jump\t// in\n    tag_301:\n        /* \"#utility.yul\":9665:9667   */\n      0x20\n        /* \"#utility.yul\":9660:9663   */\n      dup3\n        /* \"#utility.yul\":9656:9668   */\n      add\n        /* \"#utility.yul\":9649:9668   */\n      swap1\n      pop\n        /* \"#utility.yul\":9308:9674   */\n      swap2\n      swap1\n      pop\n      jump\t// out\n        /* \"#utility.yul\":9680:10099   */\n    tag_118:\n        /* \"#utility.yul\":9846:9850   */\n      0x00\n        /* \"#utility.yul\":9884:9886   */\n      0x20\n        /* \"#utility.yul\":9873:9882   */\n      dup3\n        /* \"#utility.yul\":9869:9887   */\n      add\n        /* \"#utility.yul\":9861:9887   */\n      swap1\n      pop\n        /* \"#utility.yul\":9933:9942   */\n      dup2\n        /* \"#utility.yul\":9927:9931   */\n      dup2\n        /* \"#utility.yul\":9923:9943   */\n      sub\n        /* \"#utility.yul\":9919:9920   */\n      0x00\n        /* \"#utility.yul\":9908:9917   */\n      dup4\n        /* \"#utility.yul\":9904:9921   */\n      add\n        /* \"#utility.yul\":9897:9944   */\n      mstore\n        /* \"#utility.yul\":9961:10092   */\n      tag_303\n        /* \"#utility.yul\":10087:10091   */\n      dup2\n        /* \"#utility.yul\":9961:10092   */\n      tag_201\n      jump\t// in\n    tag_303:\n        /* \"#utility.yul\":9953:10092   */\n      swap1\n      pop\n        /* \"#utility.yul\":9680:10099   */\n      swap2\n      swap1\n      pop\n      jump\t// out\n        /* \"#utility.yul\":10105:10252   */\n    tag_202:\n        /* \"#utility.yul\":10206:10217   */\n      0x00\n        /* \"#utility.yul\":10243:10246   */\n      dup2\n        /* \"#utility.yul\":10228:10246   */\n      swap1\n      pop\n        /* \"#utility.yul\":10105:10252   */\n      swap3\n      swap2\n      pop\n      pop\n      jump\t// out\n        /* \"#utility.yul\":10258:10372   */\n    tag_203:\n      pop\n      jump\t// out\n        /* \"#utility.yul\":10378:10776   */\n    tag_204:\n        /* \"#utility.yul\":10537:10540   */\n      0x00\n        /* \"#utility.yul\":10558:10641   */\n      tag_307\n        /* \"#utility.yul\":10639:10640   */\n      0x00\n        /* \"#utility.yul\":10634:10637   */\n      dup4\n        /* \"#utility.yul\":10558:10641   */\n      tag_202\n      jump\t// in\n    tag_307:\n        /* \"#utility.yul\":10551:10641   */\n      swap2\n      pop\n        /* \"#utility.yul\":10650:10743   */\n      tag_308\n        /* \"#utility.yul\":10739:10742   */\n      dup3\n        /* \"#utility.yul\":10650:10743   */\n      tag_203\n      jump\t// in\n    tag_308:\n        /* \"#utility.yul\":10768:10769   */\n      0x00\n        /* \"#utility.yul\":10763:10766   */\n      dup3\n        /* \"#utility.yul\":10759:10770   */\n      add\n        /* \"#utility.yul\":10752:10770   */\n      swap1\n      pop\n        /* \"#utility.yul\":10378:10776   */\n      swap2\n      swap1\n      pop\n      jump\t// out\n        /* \"#utility.yul\":10782:11161   */\n    tag_130:\n        /* \"#utility.yul\":10966:10969   */\n      0x00\n        /* \"#utility.yul\":10988:11135   */\n      tag_310\n        /* \"#utility.yul\":11131:11134   */\n      dup3\n        /* \"#utility.yul\":10988:11135   */\n      tag_204\n      jump\t// in\n    tag_310:\n        /* \"#utility.yul\":10981:11135   */\n      swap2\n      pop\n        /* \"#utility.yul\":11152:11155   */\n      dup2\n        /* \"#utility.yul\":11145:11155   */\n      swap1\n      pop\n        /* \"#utility.yul\":10782:11161   */\n      swap2\n      swap1\n      pop\n      jump\t// out\n        /* \"#utility.yul\":11167:11246   */\n    tag_205:\n        /* \"#utility.yul\":11206:11213   */\n      0x00\n        /* \"#utility.yul\":11235:11240   */\n      dup2\n        /* \"#utility.yul\":11224:11240   */\n      swap1\n      pop\n        /* \"#utility.yul\":11167:11246   */\n      swap2\n      swap1\n      pop\n      jump\t// out\n        /* \"#utility.yul\":11252:11409   */\n    tag_206:\n        /* \"#utility.yul\":11357:11402   */\n      tag_313\n        /* \"#utility.yul\":11377:11401   */\n      tag_314\n        /* \"#utility.yul\":11395:11400   */\n      dup3\n        /* \"#utility.yul\":11377:11401   */\n      tag_171\n      jump\t// in\n    tag_314:\n        /* \"#utility.yul\":11357:11402   */\n      tag_205\n      jump\t// in\n    tag_313:\n        /* \"#utility.yul\":11352:11355   */\n      dup3\n        /* \"#utility.yul\":11345:11403   */\n      mstore\n        /* \"#utility.yul\":11252:11409   */\n      pop\n      pop\n      jump\t// out\n        /* \"#utility.yul\":11415:11812   */\n    tag_166:\n        /* \"#utility.yul\":11555:11558   */\n      0x00\n        /* \"#utility.yul\":11570:11645   */\n      tag_316\n        /* \"#utility.yul\":11641:11644   */\n      dup3\n        /* \"#utility.yul\":11632:11638   */\n      dup6\n        /* \"#utility.yul\":11570:11645   */\n      tag_206\n      jump\t// in\n    tag_316:\n        /* \"#utility.yul\":11670:11672   */\n      0x20\n        /* \"#utility.yul\":11665:11668   */\n      dup3\n        /* \"#utility.yul\":11661:11673   */\n      add\n        /* \"#utility.yul\":11654:11673   */\n      swap2\n      pop\n        /* \"#utility.yul\":11683:11758   */\n      tag_317\n        /* \"#utility.yul\":11754:11757   */\n      dup3\n        /* \"#utility.yul\":11745:11751   */\n      dup5\n        /* \"#utility.yul\":11683:11758   */\n      tag_206\n      jump\t// in\n    tag_317:\n        /* \"#utility.yul\":11783:11785   */\n      0x20\n        /* \"#utility.yul\":11778:11781   */\n      dup3\n        /* \"#utility.yul\":11774:11786   */\n      add\n        /* \"#utility.yul\":11767:11786   */\n      swap2\n      pop\n        /* \"#utility.yul\":11803:11806   */\n      dup2\n        /* \"#utility.yul\":11796:11806   */\n      swap1\n      pop\n        /* \"#utility.yul\":11415:11812   */\n      swap4\n      swap3\n      pop\n      pop\n      pop\n      jump\t// out\n        /* \"#utility.yul\":11818:11998   */\n    tag_207:\n        /* \"#utility.yul\":11866:11943   */\n      0x4e487b7100000000000000000000000000000000000000000000000000000000\n        /* \"#utility.yul\":11863:11864   */\n      0x00\n        /* \"#utility.yul\":11856:11944   */\n      mstore\n        /* \"#utility.yul\":11963:11967   */\n      0x12\n        /* \"#utility.yul\":11960:11961   */\n      0x04\n        /* \"#utility.yul\":11953:11968   */\n      mstore\n        /* \"#utility.yul\":11987:11991   */\n      0x24\n        /* \"#utility.yul\":11984:11985   */\n      0x00\n        /* \"#utility.yul\":11977:11992   */\n      revert\n        /* \"#utility.yul\":12004:12180   */\n    tag_168:\n        /* \"#utility.yul\":12036:12037   */\n      0x00\n        /* \"#utility.yul\":12053:12073   */\n      tag_320\n        /* \"#utility.yul\":12071:12072   */\n      dup3\n        /* \"#utility.yul\":12053:12073   */\n      tag_171\n      jump\t// in\n    tag_320:\n        /* \"#utility.yul\":12048:12073   */\n      swap2\n      pop\n        /* \"#utility.yul\":12087:12107   */\n      tag_321\n        /* \"#utility.yul\":12105:12106   */\n      dup4\n        /* \"#utility.yul\":12087:12107   */\n      tag_171\n      jump\t// in\n    tag_321:\n        /* \"#utility.yul\":12082:12107   */\n      swap3\n      pop\n        /* \"#utility.yul\":12126:12127   */\n      dup3\n        /* \"#utility.yul\":12116:12151   */\n      tag_322\n      jumpi\n        /* \"#utility.yul\":12131:12149   */\n      tag_323\n      tag_207\n      jump\t// in\n    tag_323:\n        /* \"#utility.yul\":12116:12151   */\n    tag_322:\n        /* \"#utility.yul\":12172:12173   */\n      dup3\n        /* \"#utility.yul\":12169:12170   */\n      dup3\n        /* \"#utility.yul\":12165:12174   */\n      mod\n        /* \"#utility.yul\":12160:12174   */\n      swap1\n      pop\n        /* \"#utility.yul\":12004:12180   */\n      swap3\n      swap2\n      pop\n      pop\n      jump\t// out\n        /* \"#utility.yul\":12186:12366   */\n    tag_208:\n        /* \"#utility.yul\":12234:12311   */\n      0x4e487b7100000000000000000000000000000000000000000000000000000000\n        /* \"#utility.yul\":12231:12232   */\n      0x00\n        /* \"#utility.yul\":12224:12312   */\n      mstore\n        /* \"#utility.yul\":12331:12335   */\n      0x11\n        /* \"#utility.yul\":12328:12329   */\n      0x04\n        /* \"#utility.yul\":12321:12336   */\n      mstore\n        /* \"#utility.yul\":12355:12359   */\n      0x24\n        /* \"#utility.yul\":12352:12353   */\n      0x00\n        /* \"#utility.yul\":12345:12360   */\n      revert\n        /* \"#utility.yul\":12372:12563   */\n    tag_170:\n        /* \"#utility.yul\":12412:12415   */\n      0x00\n        /* \"#utility.yul\":12431:12451   */\n      tag_326\n        /* \"#utility.yul\":12449:12450   */\n      dup3\n        /* \"#utility.yul\":12431:12451   */\n      tag_171\n      jump\t// in\n    tag_326:\n        /* \"#utility.yul\":12426:12451   */\n      swap2\n      pop\n        /* \"#utility.yul\":12465:12485   */\n      tag_327\n        /* \"#utility.yul\":12483:12484   */\n      dup4\n        /* \"#utility.yul\":12465:12485   */\n      tag_171\n      jump\t// in\n    tag_327:\n        /* \"#utility.yul\":12460:12485   */\n      swap3\n      pop\n        /* \"#utility.yul\":12508:12509   */\n      dup3\n        /* \"#utility.yul\":12505:12506   */\n      dup3\n        /* \"#utility.yul\":12501:12510   */\n      add\n        /* \"#utility.yul\":12494:12510   */\n      swap1\n      pop\n        /* \"#utility.yul\":12529:12532   */\n      dup1\n        /* \"#utility.yul\":12526:12527   */\n      dup3\n        /* \"#utility.yul\":12523:12533   */\n      gt\n        /* \"#utility.yul\":12520:12556   */\n      iszero\n      tag_328\n      jumpi\n        /* \"#utility.yul\":12536:12554   */\n      tag_329\n      tag_208\n      jump\t// in\n    tag_329:\n        /* \"#utility.yul\":12520:12556   */\n    tag_328:\n        /* \"#utility.yul\":12372:12563   */\n      swap3\n      swap2\n      pop\n      pop\n      jump\t// out\n\n    auxdata: 0xa26469706673582212202b9061f6118713634a4bab5f585aad7b4fd389ac7ce4d6a6b5b0bd8d68f9883664736f6c63430008120033\n}\n",
				"bytecode": {
					"linkReferences": {},
					"object": "60806040526702c68af0bb14000060005567058d15e176280000600155601e4261002991906100e3565b6002556000600560016101000a81548160ff0219169083600281111561005257610051610117565b5b021790555034801561006357600080fd5b5033600360006101000a81548173ffffffffffffffffffffffffffffffffffffffff021916908373ffffffffffffffffffffffffffffffffffffffff160217905550610146565b6000819050919050565b7f4e487b7100000000000000000000000000000000000000000000000000000000600052601160045260246000fd5b60006100ee826100aa565b91506100f9836100aa565b9250828201905080821115610111576101106100b4565b5b92915050565b7f4e487b7100000000000000000000000000000000000000000000000000000000600052602160045260246000fd5b6110dd80620001566000396000f3fe6080604052600436106100f35760003560e01c8063925b81481161008a578063c06a56ba11610059578063c06a56ba146102a5578063d1f22eef146102bc578063e45dd666146102f9578063f203644a14610324576100f3565b8063925b814814610230578063b5545a3c1461025b578063b7db908a14610265578063b8e53ae71461027c576100f3565b80635c975abb116100c65780635c975abb146101865780638456cb59146101b1578063883f3d96146101c85780638da5cb5b14610205576100f3565b80630b97bc86146100f8578063410085df146101235780634d9b37351461013f57806359588d521461016a575b600080fd5b34801561010457600080fd5b5061010d61034f565b60405161011a9190610a9c565b60405180910390f35b61013d60048036038101906101389190610b46565b610355565b005b34801561014b57600080fd5b506101546104c0565b6040516101619190610a9c565b60405180910390f35b610184600480360381019061017f9190610b86565b6104c8565b005b34801561019257600080fd5b5061019b61064f565b6040516101a89190610bce565b60405180910390f35b3480156101bd57600080fd5b506101c6610662565b005b3480156101d457600080fd5b506101ef60048036038101906101ea9190610be9565b6106f4565b6040516101fc9190610a9c565b60405180910390f35b34801561021157600080fd5b5061021a61070c565b6040516102279190610c25565b60405180910390f35b34801561023c57600080fd5b50610245610732565b6040516102529190610a9c565b60405180910390f35b610263610738565b005b34801561027157600080fd5b5061027a61083b565b005b34801561028857600080fd5b506102a3600480360381019061029e9190610c65565b610923565b005b3480156102b157600080fd5b506102ba610950565b005b3480156102c857600080fd5b506102e360048036038101906102de9190610b86565b610a18565b6040516102f09190610a9c565b60405180910390f35b34801561030557600080fd5b5061030e610a6a565b60405161031b9190610d09565b60405180910390f35b34801561033057600080fd5b50610339610a7d565b6040516103469190610a9c565b60405180910390f35b60025481565b600360009054906101000a900473ffffffffffffffffffffffffffffffffffffffff1673ffffffffffffffffffffffffffffffffffffffff163373ffffffffffffffffffffffffffffffffffffffff16146103e5576040517f08c379a00000000000000000000000000000000000000000000000000000000081526004016103dc90610d81565b60405180910390fd5b6000543414806103f6575060015434145b610435576040517f08c379a000000000000000000000000000000000000000000000000000000000815260040161042c90610ded565b60405180910390fd5b80471015610478576040517f08c379a000000000000000000000000000000000000000000000000000000000815260040161046f90610e59565b60405180910390fd5b80600460008473ffffffffffffffffffffffffffffffffffffffff1673ffffffffffffffffffffffffffffffffffffffff168152602001908152602001600020819055505050565b600047905090565b6000543414806104d9575060015434145b610518576040517f08c379a000000000000000000000000000000000000000000000000000000000815260040161050f90610ded565b60405180910390fd5b600080600281111561052d5761052c610c92565b5b600560019054906101000a900460ff16600281111561054f5761054e610c92565b5b1461058f576040517f08c379a000000000000000000000000000000000000000000000000000000000815260040161058690610ec5565b60405180910390fd5b60025442116105d3576040517f08c379a00000000000000000000000000000000000000000000000000000000081526004016105ca90610f31565b60405180910390fd5b60001515600560009054906101000a900460ff161515146105f357600080fd5b6105fd6001610923565b3373ffffffffffffffffffffffffffffffffffffffff167fc63d5e450f470dcc6536476b6fd78a0f261765ef92b25631875b0a35eaa095bf836040516106439190610a9c565b60405180910390a25050565b600560009054906101000a900460ff1681565b600360009054906101000a900473ffffffffffffffffffffffffffffffffffffffff1673ffffffffffffffffffffffffffffffffffffffff163373ffffffffffffffffffffffffffffffffffffffff16146106f2576040517f08c379a00000000000000000000000000000000000000000000000000000000081526004016106e990610d81565b60405180910390fd5b565b60046020528060005260406000206000915090505481565b600360009054906101000a900473ffffffffffffffffffffffffffffffffffffffff1681565b60015481565b6000600460003373ffffffffffffffffffffffffffffffffffffffff1673ffffffffffffffffffffffffffffffffffffffff1681526020019081526020016000205490506000600460003373ffffffffffffffffffffffffffffffffffffffff1673ffffffffffffffffffffffffffffffffffffffff1681526020019081526020016000208190555060003373ffffffffffffffffffffffffffffffffffffffff16826040516107e790610f82565b60006040518083038185875af1925050503d8060008114610824576040519150601f19603f3d011682016040523d82523d6000602084013e610829565b606091505b505090508061083757600080fd5b5050565b60028060028111156108505761084f610c92565b5b600560019054906101000a900460ff16600281111561087257610871610c92565b5b146108b2576040517f08c379a00000000000000000000000000000000000000000000000000000000081526004016108a990610ec5565b60405180910390fd5b60025442116108f6576040517f08c379a00000000000000000000000000000000000000000000000000000000081526004016108ed90610f31565b60405180910390fd5b60001515600560009054906101000a900460ff1615151461091657600080fd5b6109206000610923565b50565b80600560016101000a81548160ff0219169083600281111561094857610947610c92565b5b021790555050565b600180600281111561096557610964610c92565b5b600560019054906101000a900460ff16600281111561098757610986610c92565b5b146109c7576040517f08c379a00000000000000000000000000000000000000000000000000000000081526004016109be90610ec5565b60405180910390fd5b6002544211610a0b576040517f08c379a0000000000000000000000000000000000000000000000000000000008152600401610a0290610f31565b60405180910390fd5b610a156002610923565b50565b6000806001600a4285604051602001610a32929190610fb8565b6040516020818303038152906040528051906020012060001c610a559190611013565b610a5f9190611073565b905080915050919050565b600560019054906101000a900460ff1681565b60005481565b6000819050919050565b610a9681610a83565b82525050565b6000602082019050610ab16000830184610a8d565b92915050565b600080fd5b600073ffffffffffffffffffffffffffffffffffffffff82169050919050565b6000610ae782610abc565b9050919050565b610af781610adc565b8114610b0257600080fd5b50565b600081359050610b1481610aee565b92915050565b610b2381610a83565b8114610b2e57600080fd5b50565b600081359050610b4081610b1a565b92915050565b60008060408385031215610b5d57610b5c610ab7565b5b6000610b6b85828601610b05565b9250506020610b7c85828601610b31565b9150509250929050565b600060208284031215610b9c57610b9b610ab7565b5b6000610baa84828501610b31565b91505092915050565b60008115159050919050565b610bc881610bb3565b82525050565b6000602082019050610be36000830184610bbf565b92915050565b600060208284031215610bff57610bfe610ab7565b5b6000610c0d84828501610b05565b91505092915050565b610c1f81610adc565b82525050565b6000602082019050610c3a6000830184610c16565b92915050565b60038110610c4d57600080fd5b50565b600081359050610c5f81610c40565b92915050565b600060208284031215610c7b57610c7a610ab7565b5b6000610c8984828501610c50565b91505092915050565b7f4e487b7100000000000000000000000000000000000000000000000000000000600052602160045260246000fd5b60038110610cd257610cd1610c92565b5b50565b6000819050610ce382610cc1565b919050565b6000610cf382610cd5565b9050919050565b610d0381610ce8565b82525050565b6000602082019050610d1e6000830184610cfa565b92915050565b600082825260208201905092915050565b7f4e6f7420746865206f776e657221000000000000000000000000000000000000600082015250565b6000610d6b600e83610d24565b9150610d7682610d35565b602082019050919050565b60006020820190508181036000830152610d9a81610d5e565b9050919050565b7f4e6f742074686520636f727265637420616d70756e7421000000000000000000600082015250565b6000610dd7601783610d24565b9150610de282610da1565b602082019050919050565b60006020820190508181036000830152610e0681610dca565b9050919050565b7f4e6f7420656e6f7567682066756e647321000000000000000000000000000000600082015250565b6000610e43601183610d24565b9150610e4e82610e0d565b602082019050919050565b60006020820190508181036000830152610e7281610e36565b9050919050565b7f4e6f7420617420636f7272656374207374616765210000000000000000000000600082015250565b6000610eaf601583610d24565b9150610eba82610e79565b602082019050919050565b60006020820190508181036000830152610ede81610ea2565b9050919050565b7f4e6f74206f70656e207965742100000000000000000000000000000000000000600082015250565b6000610f1b600d83610d24565b9150610f2682610ee5565b602082019050919050565b60006020820190508181036000830152610f4a81610f0e565b9050919050565b600081905092915050565b50565b6000610f6c600083610f51565b9150610f7782610f5c565b600082019050919050565b6000610f8d82610f5f565b9150819050919050565b6000819050919050565b610fb2610fad82610a83565b610f97565b82525050565b6000610fc48285610fa1565b602082019150610fd48284610fa1565b6020820191508190509392505050565b7f4e487b7100000000000000000000000000000000000000000000000000000000600052601260045260246000fd5b600061101e82610a83565b915061102983610a83565b92508261103957611038610fe4565b5b828206905092915050565b7f4e487b7100000000000000000000000000000000000000000000000000000000600052601160045260246000fd5b600061107e82610a83565b915061108983610a83565b92508282019050808211156110a1576110a0611044565b5b9291505056fea26469706673582212202b9061f6118713634a4bab5f585aad7b4fd389ac7ce4d6a6b5b0bd8d68f9883664736f6c63430008120033",
					"opcodes": "PUSH1 0x80 PUSH1 0x40 MSTORE PUSH8 0x2C68AF0BB140000 PUSH1 0x0 SSTORE PUSH8 0x58D15E176280000 PUSH1 0x1 SSTORE PUSH1 0x1E TIMESTAMP PUSH2 0x29 SWAP2 SWAP1 PUSH2 0xE3 JUMP JUMPDEST PUSH1 0x2 SSTORE PUSH1 0x0 PUSH1 0x5 PUSH1 0x1 PUSH2 0x100 EXP DUP2 SLOAD DUP2 PUSH1 0xFF MUL NOT AND SWAP1 DUP4 PUSH1 0x2 DUP2 GT ISZERO PUSH2 0x52 JUMPI PUSH2 0x51 PUSH2 0x117 JUMP JUMPDEST JUMPDEST MUL OR SWAP1 SSTORE POP CALLVALUE DUP1 ISZERO PUSH2 0x63 JUMPI PUSH1 0x0 DUP1 REVERT JUMPDEST POP CALLER PUSH1 0x3 PUSH1 0x0 PUSH2 0x100 EXP DUP2 SLOAD DUP2 PUSH20 0xFFFFFFFFFFFFFFFFFFFFFFFFFFFFFFFFFFFFFFFF MUL NOT AND SWAP1 DUP4 PUSH20 0xFFFFFFFFFFFFFFFFFFFFFFFFFFFFFFFFFFFFFFFF AND MUL OR SWAP1 SSTORE POP PUSH2 0x146 JUMP JUMPDEST PUSH1 0x0 DUP2 SWAP1 POP SWAP2 SWAP1 POP JUMP JUMPDEST PUSH32 0x4E487B7100000000000000000000000000000000000000000000000000000000 PUSH1 0x0 MSTORE PUSH1 0x11 PUSH1 0x4 MSTORE PUSH1 0x24 PUSH1 0x0 REVERT JUMPDEST PUSH1 0x0 PUSH2 0xEE DUP3 PUSH2 0xAA JUMP JUMPDEST SWAP2 POP PUSH2 0xF9 DUP4 PUSH2 0xAA JUMP JUMPDEST SWAP3 POP DUP3 DUP3 ADD SWAP1 POP DUP1 DUP3 GT ISZERO PUSH2 0x111 JUMPI PUSH2 0x110 PUSH2 0xB4 JUMP JUMPDEST JUMPDEST SWAP3 SWAP2 POP POP JUMP JUMPDEST PUSH32 0x4E487B7100000000000000000000000000000000000000000000000000000000 PUSH1 0x0 MSTORE PUSH1 0x21 PUSH1 0x4 MSTORE PUSH1 0x24 PUSH1 0x0 REVERT JUMPDEST PUSH2 0x10DD DUP1 PUSH3 0x156 PUSH1 0x0 CODECOPY PUSH1 0x0 RETURN INVALID PUSH1 0x80 PUSH1 0x40 MSTORE PUSH1 0x4 CALLDATASIZE LT PUSH2 0xF3 JUMPI PUSH1 0x0 CALLDATALOAD PUSH1 0xE0 SHR DUP1 PUSH4 0x925B8148 GT PUSH2 0x8A JUMPI DUP1 PUSH4 0xC06A56BA GT PUSH2 0x59 JUMPI DUP1 PUSH4 0xC06A56BA EQ PUSH2 0x2A5 JUMPI DUP1 PUSH4 0xD1F22EEF EQ PUSH2 0x2BC JUMPI DUP1 PUSH4 0xE45DD666 EQ PUSH2 0x2F9 JUMPI DUP1 PUSH4 0xF203644A EQ PUSH2 0x324 JUMPI PUSH2 0xF3 JUMP JUMPDEST DUP1 PUSH4 0x925B8148 EQ PUSH2 0x230 JUMPI DUP1 PUSH4 0xB5545A3C EQ PUSH2 0x25B JUMPI DUP1 PUSH4 0xB7DB908A EQ PUSH2 0x265 JUMPI DUP1 PUSH4 0xB8E53AE7 EQ PUSH2 0x27C JUMPI PUSH2 0xF3 JUMP JUMPDEST DUP1 PUSH4 0x5C975ABB GT PUSH2 0xC6 JUMPI DUP1 PUSH4 0x5C975ABB EQ PUSH2 0x186 JUMPI DUP1 PUSH4 0x8456CB59 EQ PUSH2 0x1B1 JUMPI DUP1 PUSH4 0x883F3D96 EQ PUSH2 0x1C8 JUMPI DUP1 PUSH4 0x8DA5CB5B EQ PUSH2 0x205 JUMPI PUSH2 0xF3 JUMP JUMPDEST DUP1 PUSH4 0xB97BC86 EQ PUSH2 0xF8 JUMPI DUP1 PUSH4 0x410085DF EQ PUSH2 0x123 JUMPI DUP1 PUSH4 0x4D9B3735 EQ PUSH2 0x13F JUMPI DUP1 PUSH4 0x59588D52 EQ PUSH2 0x16A JUMPI JUMPDEST PUSH1 0x0 DUP1 REVERT JUMPDEST CALLVALUE DUP1 ISZERO PUSH2 0x104 JUMPI PUSH1 0x0 DUP1 REVERT JUMPDEST POP PUSH2 0x10D PUSH2 0x34F JUMP JUMPDEST PUSH1 0x40 MLOAD PUSH2 0x11A SWAP2 SWAP1 PUSH2 0xA9C JUMP JUMPDEST PUSH1 0x40 MLOAD DUP1 SWAP2 SUB SWAP1 RETURN JUMPDEST PUSH2 0x13D PUSH1 0x4 DUP1 CALLDATASIZE SUB DUP2 ADD SWAP1 PUSH2 0x138 SWAP2 SWAP1 PUSH2 0xB46 JUMP JUMPDEST PUSH2 0x355 JUMP JUMPDEST STOP JUMPDEST CALLVALUE DUP1 ISZERO PUSH2 0x14B JUMPI PUSH1 0x0 DUP1 REVERT JUMPDEST POP PUSH2 0x154 PUSH2 0x4C0 JUMP JUMPDEST PUSH1 0x40 MLOAD PUSH2 0x161 SWAP2 SWAP1 PUSH2 0xA9C JUMP JUMPDEST PUSH1 0x40 MLOAD DUP1 SWAP2 SUB SWAP1 RETURN JUMPDEST PUSH2 0x184 PUSH1 0x4 DUP1 CALLDATASIZE SUB DUP2 ADD SWAP1 PUSH2 0x17F SWAP2 SWAP1 PUSH2 0xB86 JUMP JUMPDEST PUSH2 0x4C8 JUMP JUMPDEST STOP JUMPDEST CALLVALUE DUP1 ISZERO PUSH2 0x192 JUMPI PUSH1 0x0 DUP1 REVERT JUMPDEST POP PUSH2 0x19B PUSH2 0x64F JUMP JUMPDEST PUSH1 0x40 MLOAD PUSH2 0x1A8 SWAP2 SWAP1 PUSH2 0xBCE JUMP JUMPDEST PUSH1 0x40 MLOAD DUP1 SWAP2 SUB SWAP1 RETURN JUMPDEST CALLVALUE DUP1 ISZERO PUSH2 0x1BD JUMPI PUSH1 0x0 DUP1 REVERT JUMPDEST POP PUSH2 0x1C6 PUSH2 0x662 JUMP JUMPDEST STOP JUMPDEST CALLVALUE DUP1 ISZERO PUSH2 0x1D4 JUMPI PUSH1 0x0 DUP1 REVERT JUMPDEST POP PUSH2 0x1EF PUSH1 0x4 DUP1 CALLDATASIZE SUB DUP2 ADD SWAP1 PUSH2 0x1EA SWAP2 SWAP1 PUSH2 0xBE9 JUMP JUMPDEST PUSH2 0x6F4 JUMP JUMPDEST PUSH1 0x40 MLOAD PUSH2 0x1FC SWAP2 SWAP1 PUSH2 0xA9C JUMP JUMPDEST PUSH1 0x40 MLOAD DUP1 SWAP2 SUB SWAP1 RETURN JUMPDEST CALLVALUE DUP1 ISZERO PUSH2 0x211 JUMPI PUSH1 0x0 DUP1 REVERT JUMPDEST POP PUSH2 0x21A PUSH2 0x70C JUMP JUMPDEST PUSH1 0x40 MLOAD PUSH2 0x227 SWAP2 SWAP1 PUSH2 0xC25 JUMP JUMPDEST PUSH1 0x40 MLOAD DUP1 SWAP2 SUB SWAP1 RETURN JUMPDEST CALLVALUE DUP1 ISZERO PUSH2 0x23C JUMPI PUSH1 0x0 DUP1 REVERT JUMPDEST POP PUSH2 0x245 PUSH2 0x732 JUMP JUMPDEST PUSH1 0x40 MLOAD PUSH2 0x252 SWAP2 SWAP1 PUSH2 0xA9C JUMP JUMPDEST PUSH1 0x40 MLOAD DUP1 SWAP2 SUB SWAP1 RETURN JUMPDEST PUSH2 0x263 PUSH2 0x738 JUMP JUMPDEST STOP JUMPDEST CALLVALUE DUP1 ISZERO PUSH2 0x271 JUMPI PUSH1 0x0 DUP1 REVERT JUMPDEST POP PUSH2 0x27A PUSH2 0x83B JUMP JUMPDEST STOP JUMPDEST CALLVALUE DUP1 ISZERO PUSH2 0x288 JUMPI PUSH1 0x0 DUP1 REVERT JUMPDEST POP PUSH2 0x2A3 PUSH1 0x4 DUP1 CALLDATASIZE SUB DUP2 ADD SWAP1 PUSH2 0x29E SWAP2 SWAP1 PUSH2 0xC65 JUMP JUMPDEST PUSH2 0x923 JUMP JUMPDEST STOP JUMPDEST CALLVALUE DUP1 ISZERO PUSH2 0x2B1 JUMPI PUSH1 0x0 DUP1 REVERT JUMPDEST POP PUSH2 0x2BA PUSH2 0x950 JUMP JUMPDEST STOP JUMPDEST CALLVALUE DUP1 ISZERO PUSH2 0x2C8 JUMPI PUSH1 0x0 DUP1 REVERT JUMPDEST POP PUSH2 0x2E3 PUSH1 0x4 DUP1 CALLDATASIZE SUB DUP2 ADD SWAP1 PUSH2 0x2DE SWAP2 SWAP1 PUSH2 0xB86 JUMP JUMPDEST PUSH2 0xA18 JUMP JUMPDEST PUSH1 0x40 MLOAD PUSH2 0x2F0 SWAP2 SWAP1 PUSH2 0xA9C JUMP JUMPDEST PUSH1 0x40 MLOAD DUP1 SWAP2 SUB SWAP1 RETURN JUMPDEST CALLVALUE DUP1 ISZERO PUSH2 0x305 JUMPI PUSH1 0x0 DUP1 REVERT JUMPDEST POP PUSH2 0x30E PUSH2 0xA6A JUMP JUMPDEST PUSH1 0x40 MLOAD PUSH2 0x31B SWAP2 SWAP1 PUSH2 0xD09 JUMP JUMPDEST PUSH1 0x40 MLOAD DUP1 SWAP2 SUB SWAP1 RETURN JUMPDEST CALLVALUE DUP1 ISZERO PUSH2 0x330 JUMPI PUSH1 0x0 DUP1 REVERT JUMPDEST POP PUSH2 0x339 PUSH2 0xA7D JUMP JUMPDEST PUSH1 0x40 MLOAD PUSH2 0x346 SWAP2 SWAP1 PUSH2 0xA9C JUMP JUMPDEST PUSH1 0x40 MLOAD DUP1 SWAP2 SUB SWAP1 RETURN JUMPDEST PUSH1 0x2 SLOAD DUP2 JUMP JUMPDEST PUSH1 0x3 PUSH1 0x0 SWAP1 SLOAD SWAP1 PUSH2 0x100 EXP SWAP1 DIV PUSH20 0xFFFFFFFFFFFFFFFFFFFFFFFFFFFFFFFFFFFFFFFF AND PUSH20 0xFFFFFFFFFFFFFFFFFFFFFFFFFFFFFFFFFFFFFFFF AND CALLER PUSH20 0xFFFFFFFFFFFFFFFFFFFFFFFFFFFFFFFFFFFFFFFF AND EQ PUSH2 0x3E5 JUMPI PUSH1 0x40 MLOAD PUSH32 0x8C379A000000000000000000000000000000000000000000000000000000000 DUP2 MSTORE PUSH1 0x4 ADD PUSH2 0x3DC SWAP1 PUSH2 0xD81 JUMP JUMPDEST PUSH1 0x40 MLOAD DUP1 SWAP2 SUB SWAP1 REVERT JUMPDEST PUSH1 0x0 SLOAD CALLVALUE EQ DUP1 PUSH2 0x3F6 JUMPI POP PUSH1 0x1 SLOAD CALLVALUE EQ JUMPDEST PUSH2 0x435 JUMPI PUSH1 0x40 MLOAD PUSH32 0x8C379A000000000000000000000000000000000000000000000000000000000 DUP2 MSTORE PUSH1 0x4 ADD PUSH2 0x42C SWAP1 PUSH2 0xDED JUMP JUMPDEST PUSH1 0x40 MLOAD DUP1 SWAP2 SUB SWAP1 REVERT JUMPDEST DUP1 SELFBALANCE LT ISZERO PUSH2 0x478 JUMPI PUSH1 0x40 MLOAD PUSH32 0x8C379A000000000000000000000000000000000000000000000000000000000 DUP2 MSTORE PUSH1 0x4 ADD PUSH2 0x46F SWAP1 PUSH2 0xE59 JUMP JUMPDEST PUSH1 0x40 MLOAD DUP1 SWAP2 SUB SWAP1 REVERT JUMPDEST DUP1 PUSH1 0x4 PUSH1 0x0 DUP5 PUSH20 0xFFFFFFFFFFFFFFFFFFFFFFFFFFFFFFFFFFFFFFFF AND PUSH20 0xFFFFFFFFFFFFFFFFFFFFFFFFFFFFFFFFFFFFFFFF AND DUP2 MSTORE PUSH1 0x20 ADD SWAP1 DUP2 MSTORE PUSH1 0x20 ADD PUSH1 0x0 KECCAK256 DUP2 SWAP1 SSTORE POP POP POP JUMP JUMPDEST PUSH1 0x0 SELFBALANCE SWAP1 POP SWAP1 JUMP JUMPDEST PUSH1 0x0 SLOAD CALLVALUE EQ DUP1 PUSH2 0x4D9 JUMPI POP PUSH1 0x1 SLOAD CALLVALUE EQ JUMPDEST PUSH2 0x518 JUMPI PUSH1 0x40 MLOAD PUSH32 0x8C379A000000000000000000000000000000000000000000000000000000000 DUP2 MSTORE PUSH1 0x4 ADD PUSH2 0x50F SWAP1 PUSH2 0xDED JUMP JUMPDEST PUSH1 0x40 MLOAD DUP1 SWAP2 SUB SWAP1 REVERT JUMPDEST PUSH1 0x0 DUP1 PUSH1 0x2 DUP2 GT ISZERO PUSH2 0x52D JUMPI PUSH2 0x52C PUSH2 0xC92 JUMP JUMPDEST JUMPDEST PUSH1 0x5 PUSH1 0x1 SWAP1 SLOAD SWAP1 PUSH2 0x100 EXP SWAP1 DIV PUSH1 0xFF AND PUSH1 0x2 DUP2 GT ISZERO PUSH2 0x54F JUMPI PUSH2 0x54E PUSH2 0xC92 JUMP JUMPDEST JUMPDEST EQ PUSH2 0x58F JUMPI PUSH1 0x40 MLOAD PUSH32 0x8C379A000000000000000000000000000000000000000000000000000000000 DUP2 MSTORE PUSH1 0x4 ADD PUSH2 0x586 SWAP1 PUSH2 0xEC5 JUMP JUMPDEST PUSH1 0x40 MLOAD DUP1 SWAP2 SUB SWAP1 REVERT JUMPDEST PUSH1 0x2 SLOAD TIMESTAMP GT PUSH2 0x5D3 JUMPI PUSH1 0x40 MLOAD PUSH32 0x8C379A000000000000000000000000000000000000000000000000000000000 DUP2 MSTORE PUSH1 0x4 ADD PUSH2 0x5CA SWAP1 PUSH2 0xF31 JUMP JUMPDEST PUSH1 0x40 MLOAD DUP1 SWAP2 SUB SWAP1 REVERT JUMPDEST PUSH1 0x0 ISZERO ISZERO PUSH1 0x5 PUSH1 0x0 SWAP1 SLOAD SWAP1 PUSH2 0x100 EXP SWAP1 DIV PUSH1 0xFF AND ISZERO ISZERO EQ PUSH2 0x5F3 JUMPI PUSH1 0x0 DUP1 REVERT JUMPDEST PUSH2 0x5FD PUSH1 0x1 PUSH2 0x923 JUMP JUMPDEST CALLER PUSH20 0xFFFFFFFFFFFFFFFFFFFFFFFFFFFFFFFFFFFFFFFF AND PUSH32 0xC63D5E450F470DCC6536476B6FD78A0F261765EF92B25631875B0A35EAA095BF DUP4 PUSH1 0x40 MLOAD PUSH2 0x643 SWAP2 SWAP1 PUSH2 0xA9C JUMP JUMPDEST PUSH1 0x40 MLOAD DUP1 SWAP2 SUB SWAP1 LOG2 POP POP JUMP JUMPDEST PUSH1 0x5 PUSH1 0x0 SWAP1 SLOAD SWAP1 PUSH2 0x100 EXP SWAP1 DIV PUSH1 0xFF AND DUP2 JUMP JUMPDEST PUSH1 0x3 PUSH1 0x0 SWAP1 SLOAD SWAP1 PUSH2 0x100 EXP SWAP1 DIV PUSH20 0xFFFFFFFFFFFFFFFFFFFFFFFFFFFFFFFFFFFFFFFF AND PUSH20 0xFFFFFFFFFFFFFFFFFFFFFFFFFFFFFFFFFFFFFFFF AND CALLER PUSH20 0xFFFFFFFFFFFFFFFFFFFFFFFFFFFFFFFFFFFFFFFF AND EQ PUSH2 0x6F2 JUMPI PUSH1 0x40 MLOAD PUSH32 0x8C379A000000000000000000000000000000000000000000000000000000000 DUP2 MSTORE PUSH1 0x4 ADD PUSH2 0x6E9 SWAP1 PUSH2 0xD81 JUMP JUMPDEST PUSH1 0x40 MLOAD DUP1 SWAP2 SUB SWAP1 REVERT JUMPDEST JUMP JUMPDEST PUSH1 0x4 PUSH1 0x20 MSTORE DUP1 PUSH1 0x0 MSTORE PUSH1 0x40 PUSH1 0x0 KECCAK256 PUSH1 0x0 SWAP2 POP SWAP1 POP SLOAD DUP2 JUMP JUMPDEST PUSH1 0x3 PUSH1 0x0 SWAP1 SLOAD SWAP1 PUSH2 0x100 EXP SWAP1 DIV PUSH20 0xFFFFFFFFFFFFFFFFFFFFFFFFFFFFFFFFFFFFFFFF AND DUP2 JUMP JUMPDEST PUSH1 0x1 SLOAD DUP2 JUMP JUMPDEST PUSH1 0x0 PUSH1 0x4 PUSH1 0x0 CALLER PUSH20 0xFFFFFFFFFFFFFFFFFFFFFFFFFFFFFFFFFFFFFFFF AND PUSH20 0xFFFFFFFFFFFFFFFFFFFFFFFFFFFFFFFFFFFFFFFF AND DUP2 MSTORE PUSH1 0x20 ADD SWAP1 DUP2 MSTORE PUSH1 0x20 ADD PUSH1 0x0 KECCAK256 SLOAD SWAP1 POP PUSH1 0x0 PUSH1 0x4 PUSH1 0x0 CALLER PUSH20 0xFFFFFFFFFFFFFFFFFFFFFFFFFFFFFFFFFFFFFFFF AND PUSH20 0xFFFFFFFFFFFFFFFFFFFFFFFFFFFFFFFFFFFFFFFF AND DUP2 MSTORE PUSH1 0x20 ADD SWAP1 DUP2 MSTORE PUSH1 0x20 ADD PUSH1 0x0 KECCAK256 DUP2 SWAP1 SSTORE POP PUSH1 0x0 CALLER PUSH20 0xFFFFFFFFFFFFFFFFFFFFFFFFFFFFFFFFFFFFFFFF AND DUP3 PUSH1 0x40 MLOAD PUSH2 0x7E7 SWAP1 PUSH2 0xF82 JUMP JUMPDEST PUSH1 0x0 PUSH1 0x40 MLOAD DUP1 DUP4 SUB DUP2 DUP6 DUP8 GAS CALL SWAP3 POP POP POP RETURNDATASIZE DUP1 PUSH1 0x0 DUP2 EQ PUSH2 0x824 JUMPI PUSH1 0x40 MLOAD SWAP2 POP PUSH1 0x1F NOT PUSH1 0x3F RETURNDATASIZE ADD AND DUP3 ADD PUSH1 0x40 MSTORE RETURNDATASIZE DUP3 MSTORE RETURNDATASIZE PUSH1 0x0 PUSH1 0x20 DUP5 ADD RETURNDATACOPY PUSH2 0x829 JUMP JUMPDEST PUSH1 0x60 SWAP2 POP JUMPDEST POP POP SWAP1 POP DUP1 PUSH2 0x837 JUMPI PUSH1 0x0 DUP1 REVERT JUMPDEST POP POP JUMP JUMPDEST PUSH1 0x2 DUP1 PUSH1 0x2 DUP2 GT ISZERO PUSH2 0x850 JUMPI PUSH2 0x84F PUSH2 0xC92 JUMP JUMPDEST JUMPDEST PUSH1 0x5 PUSH1 0x1 SWAP1 SLOAD SWAP1 PUSH2 0x100 EXP SWAP1 DIV PUSH1 0xFF AND PUSH1 0x2 DUP2 GT ISZERO PUSH2 0x872 JUMPI PUSH2 0x871 PUSH2 0xC92 JUMP JUMPDEST JUMPDEST EQ PUSH2 0x8B2 JUMPI PUSH1 0x40 MLOAD PUSH32 0x8C379A000000000000000000000000000000000000000000000000000000000 DUP2 MSTORE PUSH1 0x4 ADD PUSH2 0x8A9 SWAP1 PUSH2 0xEC5 JUMP JUMPDEST PUSH1 0x40 MLOAD DUP1 SWAP2 SUB SWAP1 REVERT JUMPDEST PUSH1 0x2 SLOAD TIMESTAMP GT PUSH2 0x8F6 JUMPI PUSH1 0x40 MLOAD PUSH32 0x8C379A000000000000000000000000000000000000000000000000000000000 DUP2 MSTORE PUSH1 0x4 ADD PUSH2 0x8ED SWAP1 PUSH2 0xF31 JUMP JUMPDEST PUSH1 0x40 MLOAD DUP1 SWAP2 SUB SWAP1 REVERT JUMPDEST PUSH1 0x0 ISZERO ISZERO PUSH1 0x5 PUSH1 0x0 SWAP1 SLOAD SWAP1 PUSH2 0x100 EXP SWAP1 DIV PUSH1 0xFF AND ISZERO ISZERO EQ PUSH2 0x916 JUMPI PUSH1 0x0 DUP1 REVERT JUMPDEST PUSH2 0x920 PUSH1 0x0 PUSH2 0x923 JUMP JUMPDEST POP JUMP JUMPDEST DUP1 PUSH1 0x5 PUSH1 0x1 PUSH2 0x100 EXP DUP2 SLOAD DUP2 PUSH1 0xFF MUL NOT AND SWAP1 DUP4 PUSH1 0x2 DUP2 GT ISZERO PUSH2 0x948 JUMPI PUSH2 0x947 PUSH2 0xC92 JUMP JUMPDEST JUMPDEST MUL OR SWAP1 SSTORE POP POP JUMP JUMPDEST PUSH1 0x1 DUP1 PUSH1 0x2 DUP2 GT ISZERO PUSH2 0x965 JUMPI PUSH2 0x964 PUSH2 0xC92 JUMP JUMPDEST JUMPDEST PUSH1 0x5 PUSH1 0x1 SWAP1 SLOAD SWAP1 PUSH2 0x100 EXP SWAP1 DIV PUSH1 0xFF AND PUSH1 0x2 DUP2 GT ISZERO PUSH2 0x987 JUMPI PUSH2 0x986 PUSH2 0xC92 JUMP JUMPDEST JUMPDEST EQ PUSH2 0x9C7 JUMPI PUSH1 0x40 MLOAD PUSH32 0x8C379A000000000000000000000000000000000000000000000000000000000 DUP2 MSTORE PUSH1 0x4 ADD PUSH2 0x9BE SWAP1 PUSH2 0xEC5 JUMP JUMPDEST PUSH1 0x40 MLOAD DUP1 SWAP2 SUB SWAP1 REVERT JUMPDEST PUSH1 0x2 SLOAD TIMESTAMP GT PUSH2 0xA0B JUMPI PUSH1 0x40 MLOAD PUSH32 0x8C379A000000000000000000000000000000000000000000000000000000000 DUP2 MSTORE PUSH1 0x4 ADD PUSH2 0xA02 SWAP1 PUSH2 0xF31 JUMP JUMPDEST PUSH1 0x40 MLOAD DUP1 SWAP2 SUB SWAP1 REVERT JUMPDEST PUSH2 0xA15 PUSH1 0x2 PUSH2 0x923 JUMP JUMPDEST POP JUMP JUMPDEST PUSH1 0x0 DUP1 PUSH1 0x1 PUSH1 0xA TIMESTAMP DUP6 PUSH1 0x40 MLOAD PUSH1 0x20 ADD PUSH2 0xA32 SWAP3 SWAP2 SWAP1 PUSH2 0xFB8 JUMP JUMPDEST PUSH1 0x40 MLOAD PUSH1 0x20 DUP2 DUP4 SUB SUB DUP2 MSTORE SWAP1 PUSH1 0x40 MSTORE DUP1 MLOAD SWAP1 PUSH1 0x20 ADD KECCAK256 PUSH1 0x0 SHR PUSH2 0xA55 SWAP2 SWAP1 PUSH2 0x1013 JUMP JUMPDEST PUSH2 0xA5F SWAP2 SWAP1 PUSH2 0x1073 JUMP JUMPDEST SWAP1 POP DUP1 SWAP2 POP POP SWAP2 SWAP1 POP JUMP JUMPDEST PUSH1 0x5 PUSH1 0x1 SWAP1 SLOAD SWAP1 PUSH2 0x100 EXP SWAP1 DIV PUSH1 0xFF AND DUP2 JUMP JUMPDEST PUSH1 0x0 SLOAD DUP2 JUMP JUMPDEST PUSH1 0x0 DUP2 SWAP1 POP SWAP2 SWAP1 POP JUMP JUMPDEST PUSH2 0xA96 DUP2 PUSH2 0xA83 JUMP JUMPDEST DUP3 MSTORE POP POP JUMP JUMPDEST PUSH1 0x0 PUSH1 0x20 DUP3 ADD SWAP1 POP PUSH2 0xAB1 PUSH1 0x0 DUP4 ADD DUP5 PUSH2 0xA8D JUMP JUMPDEST SWAP3 SWAP2 POP POP JUMP JUMPDEST PUSH1 0x0 DUP1 REVERT JUMPDEST PUSH1 0x0 PUSH20 0xFFFFFFFFFFFFFFFFFFFFFFFFFFFFFFFFFFFFFFFF DUP3 AND SWAP1 POP SWAP2 SWAP1 POP JUMP JUMPDEST PUSH1 0x0 PUSH2 0xAE7 DUP3 PUSH2 0xABC JUMP JUMPDEST SWAP1 POP SWAP2 SWAP1 POP JUMP JUMPDEST PUSH2 0xAF7 DUP2 PUSH2 0xADC JUMP JUMPDEST DUP2 EQ PUSH2 0xB02 JUMPI PUSH1 0x0 DUP1 REVERT JUMPDEST POP JUMP JUMPDEST PUSH1 0x0 DUP2 CALLDATALOAD SWAP1 POP PUSH2 0xB14 DUP2 PUSH2 0xAEE JUMP JUMPDEST SWAP3 SWAP2 POP POP JUMP JUMPDEST PUSH2 0xB23 DUP2 PUSH2 0xA83 JUMP JUMPDEST DUP2 EQ PUSH2 0xB2E JUMPI PUSH1 0x0 DUP1 REVERT JUMPDEST POP JUMP JUMPDEST PUSH1 0x0 DUP2 CALLDATALOAD SWAP1 POP PUSH2 0xB40 DUP2 PUSH2 0xB1A JUMP JUMPDEST SWAP3 SWAP2 POP POP JUMP JUMPDEST PUSH1 0x0 DUP1 PUSH1 0x40 DUP4 DUP6 SUB SLT ISZERO PUSH2 0xB5D JUMPI PUSH2 0xB5C PUSH2 0xAB7 JUMP JUMPDEST JUMPDEST PUSH1 0x0 PUSH2 0xB6B DUP6 DUP3 DUP7 ADD PUSH2 0xB05 JUMP JUMPDEST SWAP3 POP POP PUSH1 0x20 PUSH2 0xB7C DUP6 DUP3 DUP7 ADD PUSH2 0xB31 JUMP JUMPDEST SWAP2 POP POP SWAP3 POP SWAP3 SWAP1 POP JUMP JUMPDEST PUSH1 0x0 PUSH1 0x20 DUP3 DUP5 SUB SLT ISZERO PUSH2 0xB9C JUMPI PUSH2 0xB9B PUSH2 0xAB7 JUMP JUMPDEST JUMPDEST PUSH1 0x0 PUSH2 0xBAA DUP5 DUP3 DUP6 ADD PUSH2 0xB31 JUMP JUMPDEST SWAP2 POP POP SWAP3 SWAP2 POP POP JUMP JUMPDEST PUSH1 0x0 DUP2 ISZERO ISZERO SWAP1 POP SWAP2 SWAP1 POP JUMP JUMPDEST PUSH2 0xBC8 DUP2 PUSH2 0xBB3 JUMP JUMPDEST DUP3 MSTORE POP POP JUMP JUMPDEST PUSH1 0x0 PUSH1 0x20 DUP3 ADD SWAP1 POP PUSH2 0xBE3 PUSH1 0x0 DUP4 ADD DUP5 PUSH2 0xBBF JUMP JUMPDEST SWAP3 SWAP2 POP POP JUMP JUMPDEST PUSH1 0x0 PUSH1 0x20 DUP3 DUP5 SUB SLT ISZERO PUSH2 0xBFF JUMPI PUSH2 0xBFE PUSH2 0xAB7 JUMP JUMPDEST JUMPDEST PUSH1 0x0 PUSH2 0xC0D DUP5 DUP3 DUP6 ADD PUSH2 0xB05 JUMP JUMPDEST SWAP2 POP POP SWAP3 SWAP2 POP POP JUMP JUMPDEST PUSH2 0xC1F DUP2 PUSH2 0xADC JUMP JUMPDEST DUP3 MSTORE POP POP JUMP JUMPDEST PUSH1 0x0 PUSH1 0x20 DUP3 ADD SWAP1 POP PUSH2 0xC3A PUSH1 0x0 DUP4 ADD DUP5 PUSH2 0xC16 JUMP JUMPDEST SWAP3 SWAP2 POP POP JUMP JUMPDEST PUSH1 0x3 DUP2 LT PUSH2 0xC4D JUMPI PUSH1 0x0 DUP1 REVERT JUMPDEST POP JUMP JUMPDEST PUSH1 0x0 DUP2 CALLDATALOAD SWAP1 POP PUSH2 0xC5F DUP2 PUSH2 0xC40 JUMP JUMPDEST SWAP3 SWAP2 POP POP JUMP JUMPDEST PUSH1 0x0 PUSH1 0x20 DUP3 DUP5 SUB SLT ISZERO PUSH2 0xC7B JUMPI PUSH2 0xC7A PUSH2 0xAB7 JUMP JUMPDEST JUMPDEST PUSH1 0x0 PUSH2 0xC89 DUP5 DUP3 DUP6 ADD PUSH2 0xC50 JUMP JUMPDEST SWAP2 POP POP SWAP3 SWAP2 POP POP JUMP JUMPDEST PUSH32 0x4E487B7100000000000000000000000000000000000000000000000000000000 PUSH1 0x0 MSTORE PUSH1 0x21 PUSH1 0x4 MSTORE PUSH1 0x24 PUSH1 0x0 REVERT JUMPDEST PUSH1 0x3 DUP2 LT PUSH2 0xCD2 JUMPI PUSH2 0xCD1 PUSH2 0xC92 JUMP JUMPDEST JUMPDEST POP JUMP JUMPDEST PUSH1 0x0 DUP2 SWAP1 POP PUSH2 0xCE3 DUP3 PUSH2 0xCC1 JUMP JUMPDEST SWAP2 SWAP1 POP JUMP JUMPDEST PUSH1 0x0 PUSH2 0xCF3 DUP3 PUSH2 0xCD5 JUMP JUMPDEST SWAP1 POP SWAP2 SWAP1 POP JUMP JUMPDEST PUSH2 0xD03 DUP2 PUSH2 0xCE8 JUMP JUMPDEST DUP3 MSTORE POP POP JUMP JUMPDEST PUSH1 0x0 PUSH1 0x20 DUP3 ADD SWAP1 POP PUSH2 0xD1E PUSH1 0x0 DUP4 ADD DUP5 PUSH2 0xCFA JUMP JUMPDEST SWAP3 SWAP2 POP POP JUMP JUMPDEST PUSH1 0x0 DUP3 DUP3 MSTORE PUSH1 0x20 DUP3 ADD SWAP1 POP SWAP3 SWAP2 POP POP JUMP JUMPDEST PUSH32 0x4E6F7420746865206F776E657221000000000000000000000000000000000000 PUSH1 0x0 DUP3 ADD MSTORE POP JUMP JUMPDEST PUSH1 0x0 PUSH2 0xD6B PUSH1 0xE DUP4 PUSH2 0xD24 JUMP JUMPDEST SWAP2 POP PUSH2 0xD76 DUP3 PUSH2 0xD35 JUMP JUMPDEST PUSH1 0x20 DUP3 ADD SWAP1 POP SWAP2 SWAP1 POP JUMP JUMPDEST PUSH1 0x0 PUSH1 0x20 DUP3 ADD SWAP1 POP DUP2 DUP2 SUB PUSH1 0x0 DUP4 ADD MSTORE PUSH2 0xD9A DUP2 PUSH2 0xD5E JUMP JUMPDEST SWAP1 POP SWAP2 SWAP1 POP JUMP JUMPDEST PUSH32 0x4E6F742074686520636F727265637420616D70756E7421000000000000000000 PUSH1 0x0 DUP3 ADD MSTORE POP JUMP JUMPDEST PUSH1 0x0 PUSH2 0xDD7 PUSH1 0x17 DUP4 PUSH2 0xD24 JUMP JUMPDEST SWAP2 POP PUSH2 0xDE2 DUP3 PUSH2 0xDA1 JUMP JUMPDEST PUSH1 0x20 DUP3 ADD SWAP1 POP SWAP2 SWAP1 POP JUMP JUMPDEST PUSH1 0x0 PUSH1 0x20 DUP3 ADD SWAP1 POP DUP2 DUP2 SUB PUSH1 0x0 DUP4 ADD MSTORE PUSH2 0xE06 DUP2 PUSH2 0xDCA JUMP JUMPDEST SWAP1 POP SWAP2 SWAP1 POP JUMP JUMPDEST PUSH32 0x4E6F7420656E6F7567682066756E647321000000000000000000000000000000 PUSH1 0x0 DUP3 ADD MSTORE POP JUMP JUMPDEST PUSH1 0x0 PUSH2 0xE43 PUSH1 0x11 DUP4 PUSH2 0xD24 JUMP JUMPDEST SWAP2 POP PUSH2 0xE4E DUP3 PUSH2 0xE0D JUMP JUMPDEST PUSH1 0x20 DUP3 ADD SWAP1 POP SWAP2 SWAP1 POP JUMP JUMPDEST PUSH1 0x0 PUSH1 0x20 DUP3 ADD SWAP1 POP DUP2 DUP2 SUB PUSH1 0x0 DUP4 ADD MSTORE PUSH2 0xE72 DUP2 PUSH2 0xE36 JUMP JUMPDEST SWAP1 POP SWAP2 SWAP1 POP JUMP JUMPDEST PUSH32 0x4E6F7420617420636F7272656374207374616765210000000000000000000000 PUSH1 0x0 DUP3 ADD MSTORE POP JUMP JUMPDEST PUSH1 0x0 PUSH2 0xEAF PUSH1 0x15 DUP4 PUSH2 0xD24 JUMP JUMPDEST SWAP2 POP PUSH2 0xEBA DUP3 PUSH2 0xE79 JUMP JUMPDEST PUSH1 0x20 DUP3 ADD SWAP1 POP SWAP2 SWAP1 POP JUMP JUMPDEST PUSH1 0x0 PUSH1 0x20 DUP3 ADD SWAP1 POP DUP2 DUP2 SUB PUSH1 0x0 DUP4 ADD MSTORE PUSH2 0xEDE DUP2 PUSH2 0xEA2 JUMP JUMPDEST SWAP1 POP SWAP2 SWAP1 POP JUMP JUMPDEST PUSH32 0x4E6F74206F70656E207965742100000000000000000000000000000000000000 PUSH1 0x0 DUP3 ADD MSTORE POP JUMP JUMPDEST PUSH1 0x0 PUSH2 0xF1B PUSH1 0xD DUP4 PUSH2 0xD24 JUMP JUMPDEST SWAP2 POP PUSH2 0xF26 DUP3 PUSH2 0xEE5 JUMP JUMPDEST PUSH1 0x20 DUP3 ADD SWAP1 POP SWAP2 SWAP1 POP JUMP JUMPDEST PUSH1 0x0 PUSH1 0x20 DUP3 ADD SWAP1 POP DUP2 DUP2 SUB PUSH1 0x0 DUP4 ADD MSTORE PUSH2 0xF4A DUP2 PUSH2 0xF0E JUMP JUMPDEST SWAP1 POP SWAP2 SWAP1 POP JUMP JUMPDEST PUSH1 0x0 DUP2 SWAP1 POP SWAP3 SWAP2 POP POP JUMP JUMPDEST POP JUMP JUMPDEST PUSH1 0x0 PUSH2 0xF6C PUSH1 0x0 DUP4 PUSH2 0xF51 JUMP JUMPDEST SWAP2 POP PUSH2 0xF77 DUP3 PUSH2 0xF5C JUMP JUMPDEST PUSH1 0x0 DUP3 ADD SWAP1 POP SWAP2 SWAP1 POP JUMP JUMPDEST PUSH1 0x0 PUSH2 0xF8D DUP3 PUSH2 0xF5F JUMP JUMPDEST SWAP2 POP DUP2 SWAP1 POP SWAP2 SWAP1 POP JUMP JUMPDEST PUSH1 0x0 DUP2 SWAP1 POP SWAP2 SWAP1 POP JUMP JUMPDEST PUSH2 0xFB2 PUSH2 0xFAD DUP3 PUSH2 0xA83 JUMP JUMPDEST PUSH2 0xF97 JUMP JUMPDEST DUP3 MSTORE POP POP JUMP JUMPDEST PUSH1 0x0 PUSH2 0xFC4 DUP3 DUP6 PUSH2 0xFA1 JUMP JUMPDEST PUSH1 0x20 DUP3 ADD SWAP2 POP PUSH2 0xFD4 DUP3 DUP5 PUSH2 0xFA1 JUMP JUMPDEST PUSH1 0x20 DUP3 ADD SWAP2 POP DUP2 SWAP1 POP SWAP4 SWAP3 POP POP POP JUMP JUMPDEST PUSH32 0x4E487B7100000000000000000000000000000000000000000000000000000000 PUSH1 0x0 MSTORE PUSH1 0x12 PUSH1 0x4 MSTORE PUSH1 0x24 PUSH1 0x0 REVERT JUMPDEST PUSH1 0x0 PUSH2 0x101E DUP3 PUSH2 0xA83 JUMP JUMPDEST SWAP2 POP PUSH2 0x1029 DUP4 PUSH2 0xA83 JUMP JUMPDEST SWAP3 POP DUP3 PUSH2 0x1039 JUMPI PUSH2 0x1038 PUSH2 0xFE4 JUMP JUMPDEST JUMPDEST DUP3 DUP3 MOD SWAP1 POP SWAP3 SWAP2 POP POP JUMP JUMPDEST PUSH32 0x4E487B7100000000000000000000000000000000000000000000000000000000 PUSH1 0x0 MSTORE PUSH1 0x11 PUSH1 0x4 MSTORE PUSH1 0x24 PUSH1 0x0 REVERT JUMPDEST PUSH1 0x0 PUSH2 0x107E DUP3 PUSH2 0xA83 JUMP JUMPDEST SWAP2 POP PUSH2 0x1089 DUP4 PUSH2 0xA83 JUMP JUMPDEST SWAP3 POP DUP3 DUP3 ADD SWAP1 POP DUP1 DUP3 GT ISZERO PUSH2 0x10A1 JUMPI PUSH2 0x10A0 PUSH2 0x1044 JUMP JUMPDEST JUMPDEST SWAP3 SWAP2 POP POP JUMP INVALID LOG2 PUSH5 0x6970667358 0x22 SLT KECCAK256 0x2B SWAP1 PUSH2 0xF611 DUP8 SGT PUSH4 0x4A4BAB5F PC GAS 0xAD PUSH28 0x4FD389AC7CE4D6A6B5B0BD8D68F9883664736F6C6343000812003300 "
				},
				"gasEstimates": {
					"creation": {
						"codeDepositCost": "863400",
						"executionCost": "infinite",
						"totalCost": "infinite"
					},
					"external": {
						"burgerShopStage()": "2676",
						"buyBurger(uint256)": "infinite",
						"claimRefund()": "infinite",
						"deluxCost()": "2452",
						"getFunds()": "407",
						"getRandomNum(uint256)": "infinite",
						"madeBurger()": "28920",
						"normalCost()": "2517",
						"owner()": "2603",
						"pause()": "2648",
						"paused()": "2494",
						"pickUpBurger()": "31136",
						"refund(address,uint256)": "29301",
						"startDate()": "2453",
						"updateStage(uint8)": "24789",
						"userRefunds(address)": "2881"
					}
				},
				"methodIdentifiers": {
					"burgerShopStage()": "e45dd666",
					"buyBurger(uint256)": "59588d52",
					"claimRefund()": "b5545a3c",
					"deluxCost()": "925b8148",
					"getFunds()": "4d9b3735",
					"getRandomNum(uint256)": "d1f22eef",
					"madeBurger()": "c06a56ba",
					"normalCost()": "f203644a",
					"owner()": "8da5cb5b",
					"pause()": "8456cb59",
					"paused()": "5c975abb",
					"pickUpBurger()": "b7db908a",
					"refund(address,uint256)": "410085df",
					"startDate()": "0b97bc86",
					"updateStage(uint8)": "b8e53ae7",
					"userRefunds(address)": "883f3d96"
				}
			},
			"storageLayout": {
				"storage": [
					{
						"astId": 4,
						"contract": "BurgerShop.sol:BurgerShop",
						"label": "normalCost",
						"offset": 0,
						"slot": "0",
						"type": "t_uint256"
					},
					{
						"astId": 7,
						"contract": "BurgerShop.sol:BurgerShop",
						"label": "deluxCost",
						"offset": 0,
						"slot": "1",
						"type": "t_uint256"
					},
					{
						"astId": 13,
						"contract": "BurgerShop.sol:BurgerShop",
						"label": "startDate",
						"offset": 0,
						"slot": "2",
						"type": "t_uint256"
					},
					{
						"astId": 15,
						"contract": "BurgerShop.sol:BurgerShop",
						"label": "owner",
						"offset": 0,
						"slot": "3",
						"type": "t_address"
					},
					{
						"astId": 19,
						"contract": "BurgerShop.sol:BurgerShop",
						"label": "userRefunds",
						"offset": 0,
						"slot": "4",
						"type": "t_mapping(t_address,t_uint256)"
					},
					{
						"astId": 21,
						"contract": "BurgerShop.sol:BurgerShop",
						"label": "paused",
						"offset": 0,
						"slot": "5",
						"type": "t_bool"
					},
					{
						"astId": 36,
						"contract": "BurgerShop.sol:BurgerShop",
						"label": "burgerShopStage",
						"offset": 1,
						"slot": "5",
						"type": "t_enum(Stages)31"
					}
				],
				"types": {
					"t_address": {
						"encoding": "inplace",
						"label": "address",
						"numberOfBytes": "20"
					},
					"t_bool": {
						"encoding": "inplace",
						"label": "bool",
						"numberOfBytes": "1"
					},
					"t_enum(Stages)31": {
						"encoding": "inplace",
						"label": "enum BurgerShop.Stages",
						"numberOfBytes": "1"
					},
					"t_mapping(t_address,t_uint256)": {
						"encoding": "mapping",
						"key": "t_address",
						"label": "mapping(address => uint256)",
						"numberOfBytes": "32",
						"value": "t_uint256"
					},
					"t_uint256": {
						"encoding": "inplace",
						"label": "uint256",
						"numberOfBytes": "32"
					}
				}
			},
			"userdoc": {
				"kind": "user",
				"methods": {},
				"version": 1
			}
		}
	}
}